:020000040800F2
:1000000000C000209D1100085D0F0008630F00086C
:10001000690F00086F0F0008750F0008000000004E
:100020000000000000000000000000007B0F00083E
:10003000870F000800000000930F00089F0F0008C2
:10004000E5110008E5110008E5110008E5110008B8
:10005000E5110008E5110008E5110008E5110008A8
:10006000E5110008E5110008E5110008E511000898
:10007000E5110008E5110008AD0F0008E5110008C2
:10008000E5110008E5110008E5110008E511000878
:10009000E5110008E5110008E5110008E511000868
:1000A000E5110008E5110008E5110008E511000858
:1000B000E5110008E5110008E5110008E511000848
:1000C000E5110008E5110008E5110008E511000838
:1000D000E5110008C10F0008E5110008E51100084E
:1000E000E5110008E5110008E5110008E511000818
:1000F000E5110008E5110008E5110008E511000808
:10010000E5110008E5110008E5110008E5110008F7
:10011000E5110008E5110008E5110008E5110008E7
:10012000E5110008E5110008E5110008E5110008D7
:1001300000000000000000000000000000000000BF
:1001400000000000000000000000000000000000AF
:10015000000000000000000000000000000000009F
:10016000000000000000000000000000000000008F
:10017000000000000000000000000000000000007F
:10018000000000000000000000000000000000006F
:10019000000000000000000000000000000000005F
:1001A000000000000000000000000000000000004F
:1001B000000000000000000000000000000000003F
:1001C000000000000000000000000000000000002F
:1001D000000000000000000000000000000000001F
:0401E0005FF8E0F1F3
:1001E40010B5054C237833B9044B13B10448AFF36D
:1001F40000800123237010BD78000020000000005F
:10020400EC3B000808B5034B1BB103490348AFF3AB
:10021400008008BD000000007C000020EC3B0008CA
:1002240080B500AF094B1B780133DAB2074B1A7063
:10023400064B1B78142B07D9044B00221A704FF479
:100244000051034801F019FF00BF80BD9400002055
:100254000010014090B585B000AF642001F024F88F
:100264000D4B3C460FCB07C4238000F017FB3846E8
:1002740001230122012100F0E9FA39464FF47A738F
:100284000E22064802F079FB322000F08BF800BF02
:100294001437BD4690BD00BF043C0008B0020020E6
:1002A40090B58BB000AF012000F06EFA0346002B2E
:1002B40031D01E4B1B6801331C4A13601C4B07F1E1
:1002C40018040FCB07C423801A4A07F10C0307CA8A
:1002D40003C31A800233120C1A70144B1A683B467B
:1002E4001549184603F006F807F118000023012207
:1002F400012100F0ABFA07F10C00002300220221D7
:1003040000F0A4FA384601230022032100F09EFAEB
:10031400322000F047F8FFF783FF00F083F80A204B
:1003240000F0C2FF00BF2C37BD4690BD98000020EE
:10033400043C0008183C0008143C000880B483B056
:1003440000AF0346FB80044AFB88138000BF0C37D0
:10035400BD4680BC704700BF9C00002080B400AF45
:10036400024B1B881846BD4680BC70479C00002089
:1003740080B483B000AF0346FB71044AFB79137069
:1003840000BF0C37BD4680BC704700BF9E000020F4
:1003940080B400AF024B1B781846BD4680BC704742
:1003A4009E00002080B582B000AF0346FB80FB882E
:1003B400012B0BD10120FFF7DBFF0020FFF7BEFF6D
:1003C40001222021154801F040FE22E0FB88002B89
:1003D4000BD10020FFF7CCFF0020FFF7AFFF002276
:1003E40020210E4801F031FE13E0FB88092B10D9BF
:1003F4000220FFF7BDFFFB88094AA2FB0323DB08A9
:100404009BB21846FFF79AFF01222021034801F00E
:100414001CFE00BF0837BD4680BD00BF0010014070
:10042400CDCCCCCC80B500AFFFF7B2FF0346022B96
:1004340013D1FFF793FF0346002B06D0084B1B880C
:10044400013B9AB2064B1A8007E00022202105489E
:1004540001F0FBFD0020FFF78BFF00BF80BD00BF54
:100464009C0000200010014080B485B000AF03461A
:10047400FB710023FB730BE00023FB7302E0FB7BA7
:100484000133FB73FB7B092BF9D9FB79013BFB712E
:10049400FB79002BF0D100BF00BF1437BD4680BCF0
:1004A4007047000080B500AF154B5B68144A23F415
:1004B40070435360124B5B68114A43F440535360DA
:1004C40001224FF400610E4801F0BFFD01224FF4F8
:1004D40080610B4801F0B9FD0420FFF7C5FF00223D
:1004E4004FF40061064801F0B0FD0420FFF7BCFFA3
:1004F40000224FF48061024801F0A7FD00BF80BDD7
:10050400000C014080B500AF154B5B68144A23F41E
:1005140070435360124B5B68114A43F44053536079
:1005240000224FF480610E4801F08FFD00224FF449
:1005340000610B4801F089FD0420FFF795FF0122BB
:100544004FF48061064801F080FD01224FF4006100
:10055400034801F07AFD0420FFF786FF00BF80BD49
:10056400000C014080B582B000AF0023FB711E4B2C
:100574005B681D4A23F4704353601B4B5B681A4A43
:1005840043F40043536001224FF40061164801F024
:100594005CFD0120FFF768FF01224FF480611248DF
:1005A40001F053FD0120FFF75FFF09E0FB79013300
:1005B400FB71FB79FA2B03D9FFF7A4FF01230EE0AB
:1005C4004FF40061084801F029FD0346002BEDD1EA
:1005D40000224FF48061044801F037FD00231846DF
:1005E4000837BD4680BD00BF000C014080B584B013
:1005F40000AF0346FB71204B5B681F4A23F4704332
:1006040053601D4B5B681C4A43F440535360002203
:100614004FF48061184801F018FD0023FB7323E0B8
:10062400FB79DB09DBB21A464FF40061124801F092
:100634000CFDFB795B00FB710220FFF715FF012223
:100644004FF480610C4801F000FD0220FFF70CFF1D
:1006540000224FF48061084801F0F7FC0220FFF704
:1006640003FFFB7B0133FB73FB7B072BD8D900BF54
:1006740000BF1037BD4680BD000C014080B582B07C
:1006840000AF0346FB710B46BB7113467B71FFF74A
:1006940009FFFB795B00DBB21846FFF7A7FFFFF702
:1006A40061FF0346002B03D0FFF72CFF012315E065
:1006B400BB791846FFF79AFFFFF754FF7B7918467A
:1006C400FFF794FFFFF74EFF0346002B03D0FFF71D
:1006D40019FF012302E0FFF715FF0023184608372E
:1006E400BD4680BD80B584B000AF3B600346FB715E
:1006F4000B46BB7113467B71FFF7D4FEFB795B009D
:10070400DBB21846FFF772FFFFF72CFF0346002BFE
:1007140003D0FFF7F7FE012322E0BB791846FFF769
:1007240065FFFFF71FFF0023FB7312E0FB7B3A68B2
:1007340013441B781846FFF759FFFFF713FF0346CE
:10074400002B03D0FFF7DEFE012309E0FB7B01331E
:10075400FB73FA7B7B799A42E8D3FFF7D3FE00233D
:1007640018461037BD4680BD80B500AF042105484A
:1007740001F054FC0346002B01D1012300E00023C7
:10078400184680BD0014014080B582B000AF034616
:10079400FB71FFF7E9FF0346012B0ED10E4B1B88BB
:1007A4001A46FB7901335B009A4209DA0A4B1B882B
:1007B40001339AB2084B1A8002E0074B00221A80D8
:1007C400054B1B88022B01D1012300E000231846AE
:1007D4000837BD4680BD00BFA000002080B500AF33
:1007E400002000F037F900BF80BD80B500AF00F0F5
:1007F40003F900BF80BD000080B582B000AF78600F
:10080400084611461A460346FB700B46BB70134656
:100814007B707B78002B01D0FFF7E0FFFB789BB265
:10082400BA7892B21146184600F08AF901220649B4
:10083400786800F01BFA3B7C002B01D0FFF7D5FF52
:1008440000BF0837BD4680BD0000002080B584B0DD
:1008540002AF7860084611461A460346FB700B4601
:10086400BB7013467B70FB78002B12D0FB78032BF4
:100874000FD8FB781A46920013445B00DBB20A3BA4
:10088400DAB2B9787B7800930B4600217868FFF7D9
:10089400B3FF00BF0837BD4680BD000080B582B0FD
:1008A40000AF40F6C4137B6002E07B68013B7B60D1
:1008B4007B68002BF9D1AE2200213C2000F011FA14
:1008C400A62200213C2000F00CFAAE2200213C209C
:1008D40000F007FAD52200213C2000F002FA802221
:1008E40000213C2000F0FDF9A82200213C2000F06A
:1008F400F8F91F2200213C2000F0F3F9D322002153
:100904003C2000F0EEF9002200213C2000F0E9F93F
:10091400402200213C2000F0E4F98D2200213C20FB
:1009240000F0DFF9142200213C2000F0DAF9202243
:1009340000213C2000F0D5F9022200213C2000F0E7
:10094400D0F9A12200213C2000F0CBF9C8220021DB
:100954003C2000F0C6F9DA2200213C2000F0C1F965
:10096400022200213C2000F0BCF9812200213C201D
:1009740000F0B7F9CF2200213C2000F0B2F9D922CF
:1009840000213C2000F0ADF9F12200213C2000F0D0
:10099400A8F9DB2200213C2000F0A3F94022002129
:1009A4003C2000F09EF92E2200213C2000F099F911
:1009B400A42200213C2000F094F9A62200213C202E
:1009C40000F08FF9AF2200213C2000F08AF90020CA
:1009D40000F040F800F010F8064B00221A80054B96
:1009E40000225A80034B01225A710123184608370A
:1009F400BD4680BDA402002080B582B000AF0023B4
:100A0400FB711DE0FB79503BDBB21A4600213C2010
:100A140000F067F9002200213C2000F062F9102266
:100A240000213C2000F05DF9FB79DB01084A1A44FF
:100A3400802340213C2000F03EF9FB790133FB7117
:100A4400FB79072BDED900BF00BF0837BD4680BD48
:100A5400A400002080B582B000AF0346FB71FB798F
:100A6400002B01D1002300E0FF234FF4007219464C
:100A7400034802F037FC00BF0837BD4680BD00BF05
:100A8400A400002080B483B000AF0346FB800B4673
:100A9400BB801346FB70FB887F2B48D8BB881F2B79
:100AA40045D8254B1B79002B06D0FB78002B0CBFB7
:100AB40001230023DBB2FB70FB78012B1AD1FA88E7
:100AC400BB88DB0898B20346DB0113441B4AD35CA2
:100AD4005AB2BB8803F00703012101FA03F35BB2A6
:100AE400134359B2FA880346DB011344C9B2134ACB
:100AF400D1541DE0FA88BB88DB0898B20346DB01B9
:100B040013440E4AD35C5AB2BB8803F00703012195
:100B140001FA03F35BB2DB435BB2134059B2FA88C8
:100B24000346DB011344C9B2044AD15400E000BFB8
:100B34000C37BD4680BC7047A4020020A4000020EE
:100B440080B483B000AF03460A46FB801346BB80E3
:100B5400054AFB881380044ABB88538000BF0C37C6
:100B6400BD4680BC704700BFA402002080B586B09B
:100B740000AF03463960FB711346BB713A4B1B88C7
:100B84001A463B681B7813447F2B07DC364B5B8883
:100B94001A463B685B7813441F2B01DD00235EE09B
:100BA40000237B614BE03B685A68FB79203B396842
:100BB400497801FB03F319467B690B445B0013443A
:100BC4001B88FB6000233B6130E0FA683B6902FA52
:100BD40003F303F40043002B10D0234B1A883B6922
:100BE4009BB2134498B2204B5A887B699BB213443E
:100BF4009BB2BA791946FFF745FF14E01A4B1A88DD
:100C04003B699BB2134498B2174B5A887B699BB2D9
:100C1400134499B2BB79002B0CBF01230023DBB230
:100C24001A46FFF72FFF3B6901333B613B681B7892
:100C34001A463B699342C8D37B6901337B613B68A5
:100C44005B781A467B699342ADD3074B1A883B689D
:100C54001B789BB213449AB2034B1A80FB79184653
:100C64001837BD4680BD00BFA402002080B584B003
:100C740000AFF860B9601346FB7112E0FB681B78A3
:100C8400FA79B9681846FFF771FF03461A46FB68FC
:100C94001B789A4202D0FB681B7808E0FB6801339A
:100CA400FB60FB681B78002BE8D1FB681B781846B7
:100CB4001037BD4680BD80B582B000AF3A601A4699
:100CC4000346FB710B46BB711346BB80BB88DAB28B
:100CD400B979F8793B68FFF705FD00BF0837BD46D1
:100CE40080BD80B582B000AF0346FB710B46BB717B
:100CF40013467B717A79B979FB791846FFF7BEFC04
:100D040000BF0837BD4680BD80B582B000AF0C4B34
:100D14005B690B4A43F001035361094B5B6903F0C0
:100D240001037B607B68002200210E2000F0B7FBEA
:100D34000E2000F0D0FB00BF0837BD4680BD00BFC9
:100D44000010024080B588B000AF07F11003002204
:100D54001A605A609A60DA60344B9B69334A43F0F4
:100D640010039361314B9B6903F01003FB60FB6834
:100D74002E4B9B692D4A43F0200393612B4B9B69B7
:100D840003F02003BB60BB68284B9B69274A43F0F0
:100D940008039361254B9B6903F008037B607B6820
:100DA400224B9B69214A43F0040393611F4B9B69C7
:100DB40003F004033B603B68002242F220011C481C
:100DC40001F043F900224FF440611A4801F03DF963
:100DD40042F220033B6101237B610023BB610223B8
:100DE400FB6107F110031946114800F083FF4FF42B
:100DF40040633B6101237B610023BB610223FB61F0
:100E040007F1100319460B4800F074FF04233B61FB
:100E140000237B610123BB6107F1100319460648D7
:100E240000F068FF00BF2037BD4680BD00100240BF
:100E340000100140000C01400014014080B500AFD7
:100E440000F0D0F900F00BF8FFF77CFFFFF75CFF30
:100E540000F0FAF8FFF7FEF9FFF722FAFCE780B595
:100E640090B000AF07F1180328220021184602F0C1
:100E740039FA3B1D00221A605A609A60DA601A61DE
:100E84000123BB614FF48033FB6100233B620123E8
:100E9400BB6202237B634FF48033BB634FF4E013E4
:100EA400FB6307F11803184601F000F90346002B11
:100EB40001D000F019F80F237B600223BB600023EC
:100EC400FB604FF480633B6100237B613B1D022187
:100ED400184601F06DFB0346002B01D000F004F826
:100EE40000BF4037BD4680BD80B400AF72B600BFBE
:100EF400FEE7000080B485B000AF154B9B69144A2F
:100F040043F001039361124B9B6903F00103BB603F
:100F1400BB680F4BDB690E4A43F08053D3610C4B23
:100F2400DB6903F080537B607B680A4B5B68FB6082
:100F3400FB6823F0E063FB60FB6843F00073FB6035
:100F4400044AFB68536000BF1437BD4680BC704739
:100F5400001002400000014080B400AFFEE780B4FE
:100F640000AFFEE780B400AFFEE780B400AFFEE759
:100F740080B400AFFEE780B400AF00BFBD4680BCC4
:100F8400704780B400AF00BFBD4680BC704780B4DA
:100F940000AF00BFBD4680BC704780B500AF00F015
:100FA40067F900BF80BD000080B500AF024800F0C3
:100FB40065FC00BF80BD00BFF402002080B500AF17
:100FC400024801F06DFD00BF80BD00BFB0020020EB
:100FD40080B586B000AF7860144A154BD31A7B6194
:100FE4007B693B61134B1B68002B02D1114B124AE6
:100FF4001A60104B1A687B6813443A699A4207D204
:1010040002F046F903460C221A604FF0FF3309E060
:10101400084B1B68FB60074B1A687B681344054A3E
:101024001360FB6818461837BD4680BD00C0002019
:1010340000040000AC0200205003002080B400AF84
:1010440000BFBD4680BC704780B500AF114B124A4B
:101054001A60104B4FF4E1325A600E4B00229A6032
:101064000C4B0022DA600B4B00221A61094B0C2254
:101074005A61084B00229A61064B0022DA61054846
:1010840001F02EFC0346002B01D0FFF72DFF00BF1B
:1010940080BD00BFB00200200038014080B588B098
:1010A40000AF786007F1100300221A605A609A605A
:1010B400DA607B681B68334A93425FD1324B9B6989
:1010C400314A43F4804393612F4B9B6903F480437B
:1010D400FB60FB682C4B9B692B4A43F00403936130
:1010E400294B9B6903F00403BB60BB684FF4007396
:1010F4003B6102237B610323FB6107F11003194663
:10110400224800F0F7FD4FF480633B6100237B61CC
:101114000023BB6107F1100319461C4800F0EAFDE7
:101124001B4B1C4A1A601A4B10225A60184B00229F
:101134009A60174B8022DA60154B00221A61144B17
:1011440000225A61124B00229A61114B0022DA618B
:101154000F4800F0DBF90346002B01D0FFF7C4FE73
:101164007B680B4A5A630A4A7B6853620022002157
:10117400252000F094F9252000F0ADF900BF2037B8
:10118400BD4680BD00380140001002400008014007
:10119400F4020020440002400C480D490D4A00238B
:1011A40002E0D458C4500433C4188C42F9D30A4A18
:1011B4000A4C002301E013600432A242FBD3FFF780
:1011C4003DFF02F06BF8FFF739FE70470000002086
:1011D40078000020F4430008780000204C0300202D
:1011E400FEE7000080B500AF084B1B68074A43F0D8
:1011F40010031360032000F047F90F2000F008F8F3
:10120400FFF778FE0023184680BD00BF002002408F
:1012140080B582B000AF7860124B1A68124B1B780D
:1012240019464FF47A73B3FBF1F3B2FBF3F31846A8
:1012340000F05FF90346002B01D001230EE07B6828
:101244000F2B0AD8002279684FF0FF3000F027F9FD
:10125400064A7B681360002300E001231846083720
:10126400BD4680BD08000020100000200C000020B6
:1012740080B400AF054B1B781A46054B1B6813441A
:10128400034A136000BFBD4680BC704710000020B5
:101294003803002080B400AF024B1B681846BD46DB
:1012A40080BC70473803002080B584B000AF7860FC
:1012B400FFF7F0FFB8607B68FB60FB68B3F1FF3FAA
:1012C40005D00A4B1B781A46FB681344FB6000BF29
:1012D400FFF7E0FF0246BB68D31AFA689A42F7D8D0
:1012E40000BF00BF1037BD4680BD00BF1000002006
:1012F40080B485B000AF78607B6803F00703FB60BF
:101304000C4BDB68BB60BA684FF6FF031340BB604D
:10131400FB681A02BB68134343F0BF6343F4003312
:10132400BB60044ABB68D36000BF1437BD4680BCB1
:10133400704700BF00ED00E080B400AF044BDB68F1
:101344001B0A03F007031846BD4680BC704700BF64
:1013540000ED00E080B483B000AF0346FB7197F961
:101364000730002B0BDBFB7903F01F02064997F9CA
:1013740007305B09012000FA02F241F8232000BF84
:101384000C37BD4680BC704700E100E080B483B0F8
:1013940000AF03463960FB7197F90730002B0ADB75
:1013A4003B68DAB20C4997F907301201D2B20B4408
:1013B40083F800230AE03B68DAB20849FB7903F0BA
:1013C4000F03043B1201D2B20B441A7600BF0C3750
:1013D400BD4680BC704700BF00E100E000ED00E0C6
:1013E40080B489B000AFF860B9607A60FB6803F03C
:1013F4000703FB61FB69C3F10703042B28BF042324
:10140400BB61FB690433062B02D9FB69033B00E093
:1014140000237B614FF0FF32BB6902FA03F3DA4326
:10142400BB681A407B699A404FF0FF317B6901FA2F
:1014340003F3D9437B680B40134318462437BD4656
:1014440080BC704780B582B000AF78607B68013B98
:10145400B3F1807F01D301230FE00A4A7B68013B8B
:1014640053600F214FF0FF30FFF790FF054B002230
:101474009A60044B07221A60002318460837BD46B9
:1014840080BD00BF10E000E080B582B000AF78609E
:101494007868FFF72DFF00BF0837BD4680BD80B5D3
:1014A40086B000AF0346B9607A60FB7300237B61AA
:1014B400FFF742FF78617A68B9687869FFF790FFAF
:1014C400024697F90F3011461846FFF75FFF00BF39
:1014D4001837BD4680BD80B582B000AF0346FB71AE
:1014E40097F907301846FFF735FF00BF0837BD46A8
:1014F40080BD80B582B000AF78607868FFF7A2FF46
:10150400034618460837BD4680BD000080B485B048
:1015140000AF78600023FB607B68002B01D10123BE
:1015240059E07B681B681A462D4B9A420FD87B689A
:101534001B681A462B4B13442B4AA2FB03231B099B
:101544009A007B681A647B68284ADA630EE07B6839
:101554001B681A46264B1344234AA2FB03231B0988
:101564009A007B681A647B68224ADA637B680222E9
:1015740083F821207B681B681B68FB60FB6823F4ED
:101584007F5323F03003FB607B685A687B689B6859
:101594001A437B68DB681A437B681B691A437B68C0
:1015A4005B691A437B689B691A437B68DB69134355
:1015B400FA681343FB607B681B68FA681A607B68EF
:1015C40000229A637B68012283F821207B68002231
:1015D40083F82020002318461437BD4680BC70478A
:1015E40007040240F8FFFDBFCDCCCCCC0000024084
:1015F400F8FBFDBF0004024080B485B000AF786002
:101604000023FB737B6893F82130022B08D07B689E
:1016140004229A637B68002283F82020012320E0BF
:101624007B681B681A687B681B6822F00E021A60CC
:101634007B681B681A687B681B6822F001021A60C9
:101644007B681A6C7B68DB6B012101FA02F25A6039
:101654007B68012283F821207B68002283F8202004
:10166400FB7B18461437BD4680BC704780B584B0F8
:1016740000AF78600023FB737B6893F82130022B62
:1016840005D07B6804229A630123FB73D6E07B6850
:101694001B681A687B681B6822F00E021A607B685C
:1016A4001B681A687B681B6822F001021A607B6859
:1016B4001B681A46644B9A4258D97B681B68634A74
:1016C40093424FD07B681B68614A934248D07B6841
:1016D4001B68604A934240D07B681B685E4A934211
:1016E40038D07B681B685D4A934230D07B681B68A6
:1016F4005B4A934228D07B681B68534A934220D0AC
:101704007B681B68574A934219D07B681B68564A0A
:10171400934212D07B681B68544A93420AD07B6878
:101724001B68534A934202D14FF480531BE04FF499
:10173400803318E04FF4807315E0102313E0012385
:1017440011E04FF080730EE04FF480130BE04FF480
:10175400803308E04FF4805305E04FF4807302E0D7
:10176400102300E00123434A536057E07B681B6861
:10177400364A93424FD07B681B68354A934248D01F
:101784007B681B68334A934240D07B681B68324AAB
:10179400934238D07B681B68304A934230D07B68D0
:1017A4001B682F4A934228D07B681B68264A9342C1
:1017B40020D07B681B682B4A934219D07B681B6836
:1017C400294A934212D07B681B68284A93420AD064
:1017D4007B681B68264A934202D14FF480531BE076
:1017E4004FF4803318E04FF4807315E0102313E0B6
:1017F400012311E04FF080730EE04FF480130BE0EF
:101804004FF4803308E04FF4805305E04FF48073C5
:1018140002E0102300E00123174A53607B68012291
:1018240083F821207B68002283F820207B685B6B8F
:10183400002B03D07B685B6B78689847FB7B18466A
:101844001037BD4680BD00BF800002400800024042
:101854001C00024030000240440002405800024094
:101864006C000240080402401C04024030040240A0
:1018740044040240000402400000024080B584B0E9
:1018840000AF78607B68DB6B1B68FB607B681B6860
:101894001B68BB607B681B6C04229A40FB68134086
:1018A400002B00F0F180BB6803F00403002B00F070
:1018B400EB807B681B681B6803F02003002B07D1B7
:1018C4007B681B681A687B681B6822F004021A6034
:1018D4007B681B681A465F4B9A4258D97B681B6821
:1018E4005D4A93424FD07B681B685C4A934248D060
:1018F4007B681B685A4A934240D07B681B68594AEC
:10190400934238D07B681B68574A934230D07B6837
:101914001B68564A934228D07B681B684D4A934201
:1019240020D07B681B68524A934219D07B681B689D
:10193400504A934212D07B681B684F4A93420AD0A4
:101944007B681B684D4A934202D14FF480431BE0ED
:101954004FF4802318E04FF4806315E0402313E034
:10196400042311E04FF080630EE04FF480030BE09A
:101974004FF4802308E04FF4804305E04FF4806384
:1019840002E0402300E004233D4A536057E07B68B3
:101994001B68314A93424FD07B681B682F4A93429D
:1019A40048D07B681B682E4A934240D07B681B68F2
:1019B4002C4A934238D07B681B682B4A934230D020
:1019C4007B681B68294A934228D07B681B68214A9C
:1019D400934220D07B681B68254A934219D07B68C8
:1019E4001B68244A934212D07B681B68224A9342A4
:1019F4000AD07B681B68214A934202D14FF480438A
:101A04001BE04FF4802318E04FF4806315E040237B
:101A140013E0042311E04FF080630EE04FF48003E1
:101A24000BE04FF4802308E04FF4804305E04FF4CB
:101A3400806302E0402300E00423124A53607B6881
:101A4400DB6A002B00F036817B68DB6A7868984794
:101A540030E100BF80000240080002401C00024048
:101A64003000024044000240580002406C00024032
:101A7400080402401C0402403004024044040240B2
:101A840000040240000002407B681B6C02229A4062
:101A9400FB681340002B00F0DD80BB6803F00203F9
:101AA400002B00F0D7807B681B681B6803F02003C1
:101AB400002B0BD17B681B681A687B681B6822F0BB
:101AC4000A021A607B68012283F821207B681B6864
:101AD4001A467B4B9A4258D97B681B68794A9342D1
:101AE4004FD07B681B68784A934248D07B681B6858
:101AF400764A934240D07B681B68754A934238D03B
:101B04007B681B68734A934230D07B681B68724AB7
:101B1400934228D07B681B68694A934220D07B6833
:101B24001B686E4A934219D07B681B686C4A9342C7
:101B340012D07B681B686B4A93420AD07B681B688F
:101B4400694A934202D14FF400531BE04FF400332F
:101B540018E04FF4007315E0202313E0022311E092
:101B64004FF000730EE04FF400130BE04FF400331A
:101B740008E04FF4005305E04FF4007302E0202323
:101B840000E00223594A536057E07B681B684D4AC2
:101B940093424FD07B681B684B4A934248D07B6882
:101BA4001B684A4A934240D07B681B68484A934268
:101BB40038D07B681B68474A934230D07B681B68E7
:101BC400454A934228D07B681B683D4A934220D003
:101BD4007B681B68414A934219D07B681B68404A62
:101BE400934212D07B681B683E4A93420AD07B68BA
:101BF4001B683D4A934202D14FF400531BE04FF45B
:101C0400003318E04FF4007315E0202313E002239F
:101C140011E04FF000730EE04FF400130BE04FF4AB
:101C2400003308E04FF4005305E04FF4007302E082
:101C3400202300E002232E4A53607B68002283F8AD
:101C440020207B689B6A002B34D07B689B6A786871
:101C540098472FE07B681B6C08229A40FB6813406E
:101C6400002B28D0BB6803F00803002B23D07B682B
:101C74001B681A687B681B6822F00E021A607B6876
:101C84001A6C7B68DB6B012101FA02F25A607B68F3
:101C940001229A637B68012283F821207B68002259
:101CA40083F820207B681B6B002B04D07B681B6BA4
:101CB4007868984700BF00BF1037BD4680BD00BF9D
:101CC40080000240080002401C0002403000024034
:101CD40044000240580002406C00024008040240E4
:101CE4001C04024030040240440402400004024048
:101CF4000000024080B48BB000AF786039600023EC
:101D04007B6200233B6279E101227B6A02FA03F3DE
:101D1400FB613B681B68FA691340BB61BA69FB69E4
:101D24009A4240F068813B685B68964A93425ED071
:101D3400944A934275D8944A934258D0924A934213
:101D44006FD8924A934252D0904A934269D8904AAB
:101D540093424CD08E4A934263D88E4A934246D0E3
:101D64008C4A93425DD8122B2AD8122B59D801A23F
:101D740052F823F0F31D0008CD1D0008DF1D0008F4
:101D8400211E0008271E0008271E0008271E000821
:101D9400271E0008271E0008271E0008271E00080B
:101DA400271E0008271E0008271E0008271E0008FB
:101DB400271E0008271E0008D51D0008E91D00087D
:101DC400754A934213D02CE03B68DB683B6229E000
:101DD4003B68DB6804333B6224E03B68DB68083320
:101DE4003B621FE03B68DB680C333B621AE03B68F4
:101DF4009B68002B02D104233B6213E03B689B6881
:101E0400012B05D108233B627B68FA691A6109E05A
:101E140008233B627B68FA695A6103E000233B6252
:101E240000E000BFBB69FF2B01D87B6801E07B6841
:101E340004337B61BB69FF2B02D87B6A9B0002E001
:101E44007B6A083B9B003B617B691A680F213B69F5
:101E540001FA03F3DB431A40396A3B6901FA03F3DD
:101E64001A437B691A603B685B6803F08053002B5C
:101E740000F0C180494B9B69484A43F001039361D8
:101E8400464B9B6903F00103BB60BB68444A7B6A11
:101E94009B08023352F82330FB607B6A03F0030390
:101EA4009B000F2202FA03F3DB43FA681340FB6042
:101EB4007B683C4A93421FD07B683B4A934219D0CB
:101EC4007B683A4A934213D07B68394A93420DD0D7
:101ED4007B68384A934207D07B68374A934201D1E2
:101EE40005230AE0062308E0042306E0032304E0B4
:101EF400022302E0012300E000237A6A02F00302D5
:101F040092009340FA681343FB6025497B6A9B085F
:101F14000233FA6841F823203B685B6803F480339A
:101F2400002B06D0254B1A682449BB6913430B6068
:101F340006E0224B1A68BB69DB43204913400B605F
:101F44003B685B6803F40033002B06D01B4B5A68D4
:101F54001A49BB6913434B6006E0184B5A68BB69C6
:101F6400DB43164913404B603B685B6803F4801302
:101F7400002B25D0114B9A681049BB6913438B6021
:101F840025E000BF000032100000311000002210D4
:101F94000000211000001210000011100010024077
:101FA4000000014000080140000C01400010014005
:101FB4000014014000180140001C014000040140CD
:101FC400154B9A68BB69DB43134913408B603B682C
:101FD4005B6803F40013002B06D00F4BDA680E493C
:101FE400BB691343CB6006E00B4BDA68BB69DB4388
:101FF40009491340CB607B6A01337B623B681A68F2
:102004007B6A22FA03F3002B7FF47EAE00BF00BF8D
:102014002C37BD4680BC70470004014080B485B0B5
:1020240000AF78600B467B807B689A687B8813409E
:10203400002B02D00123FB7301E00023FB73FB7B25
:1020440018461437BD4680BC704780B483B000AFD7
:1020540078600B467B8013467B707B78002B03D023
:102064007A887B681A6103E07B881A047B681A61AA
:1020740000BF0C37BD4680BC704780B485B000AF4C
:1020840078600B467B807B68DB68FB607A88FB6842
:1020940013401A04FB68D9437B880B401A437B68BE
:1020A4001A6100BF1437BD4680BC704780B586B046
:1020B40000AF78607B68002B01D1012372E27B685A
:1020C4001B6803F00103002B00F08780924B5B68D0
:1020D40003F00C03042B0CD08F4B5B6803F00C0350
:1020E400082B12D18C4B5B6803F48033B3F5803F2B
:1020F4000BD1894B1B6803F40033002B6CD07B6835
:102104005B68002B68D101234CE27B685B68B3F504
:10211400803F06D1804B1B687F4A43F480331360B1
:102124002EE07B685B68002B0CD17B4B1B687A4AE2
:1021340023F480331360784B1B68774A23F480239D
:1021440013601DE07B685B68B3F5A02F0CD1724B64
:102154001B68714A43F4802313606F4B1B686E4AFB
:1021640043F4803313600BE06B4B1B686A4A23F41F
:1021740080331360684B1B68674A23F48023136021
:102184007B685B68002B13D0FFF784F8386108E0A4
:10219400FFF780F802463B69D31A642B01D9032365
:1021A40000E25D4B1B6803F40033002BF0D014E015
:1021B400FFF770F8386108E0FFF76CF802463B69F6
:1021C400D31A642B01D90323ECE1534B1B6803F4AA
:1021D4000033002BF0D100E000BF7B681B6803F0E4
:1021E4000203002B63D04C4B5B6803F00C03002B01
:1021F4000BD0494B5B6803F00C03082B1CD1464BF6
:102204005B6803F48033002B16D1434B1B6803F047
:102214000203002B05D07B681B69012B01D001232D
:10222400C0E13D4B1B6823F0F8027B685B69DB006F
:10223400394913430B603AE07B681B69002B20D0BB
:10224400364B01221A60FFF725F8386108E0FFF7E2
:1022540021F802463B69D31A022B01D90323A1E1D9
:102264002D4B1B6803F00203002BF0D02A4B1B6894
:1022740023F0F8027B685B69DB00274913430B609A
:1022840015E0264B00221A60FFF704F8386108E0D5
:10229400FFF700F802463B69D31A022B01D9032346
:1022A40080E11D4B1B6803F00203002BF0D17B6817
:1022B4001B6803F00803002B3AD07B689B69002B52
:1022C40019D0174B01221A60FEF7E4FF386108E0C9
:1022D400FEF7E0FF02463B69D31A022B01D9032320
:1022E40060E10D4B5B6A03F00203002BF0D0012088
:1022F40000F0D8FA1CE00A4B00221A60FEF7CAFF6D
:1023040038610FE0FEF7C6FF02463B69D31A022B81
:1023140008D9032346E100BF0010024000004242F6
:1023240080044242924B5B6A03F00203002BE9D122
:102334007B681B6803F00403002B00F0A6800023D5
:10234400FB758B4BDB6903F08053002B0DD1884B5D
:10235400DB69874A43F08053D361854BDB6903F023
:102364008053BB60BB680123FB75824B1B6803F47D
:102374008073002B18D17F4B1B687E4A43F4807313
:102384001360FEF787FF386108E0FEF783FF02461B
:102394003B69D31A642B01D9032303E1754B1B68F2
:1023A40003F48073002BF0D07B68DB68012B06D12B
:1023B4006F4B1B6A6E4A43F0010313622DE07B6886
:1023C400DB68002B0CD16A4B1B6A694A23F00103BA
:1023D4001362674B1B6A664A23F0040313621CE012
:1023E4007B68DB68052B0CD1614B1B6A604A43F0A8
:1023F400040313625E4B1B6A5D4A43F001031362DC
:102404000BE05B4B1B6A5A4A23F001031362584BDF
:102414001B6A574A23F0040313627B68DB68002BB2
:1024240015D0FEF737FF38610AE0FEF733FF0246A6
:102434003B69D31A41F28832934201D90323B1E0B4
:102444004B4B1B6A03F00203002BEED014E0FEF7A3
:1024540021FF38610AE0FEF71DFF02463B69D31AEB
:1024640041F28832934201D903239BE0404B1B6A1B
:1024740003F00203002BEED1FB7D012B05D13C4B75
:10248400DB693B4A23F08053D3617B68DB69002B13
:1024940000F08780364B5B6803F00C03082B61D097
:1024A4007B68DB69022B46D1334B00221A60FEF7AE
:1024B400F1FE386108E0FEF7EDFE02463B69D31AEF
:1024C400022B01D903236DE0294B1B6803F0007331
:1024D400002BF0D17B681B6AB3F5803F08D1244BF5
:1024E4005B6823F400327B689B68214913434B608B
:1024F4001F4B5B6823F474127B68196A7B685B6A00
:102504000B431B4913434B601B4B01221A60FEF71C
:10251400C1FE386108E0FEF7BDFE02463B69D31AEE
:10252400022B01D903233DE0114B1B6803F0007318
:10253400002BF0D035E0104B00221A60FEF7AAFE03
:10254400386108E0FEF7A6FE02463B69D31A022B67
:1025540001D9032326E0064B1B6803F00073002B0C
:10256400F0D11EE07B68DB69012B07D1012319E060
:102574000010024000700040600042420B4B5B6858
:10258400FB60FB6803F480327B681B6A9A4206D1C5
:10259400FB6803F470127B685B6A9A4201D00123E2
:1025A40000E0002318461837BD4680BD00100240E5
:1025B40080B584B000AF786039607B68002B01D1AE
:1025C4000123D0E06A4B1B6803F007033A689A4280
:1025D40010D9674B1B6823F0070265493B68134316
:1025E4000B60634B1B6803F007033A689A4201D0FF
:1025F4000123B8E07B681B6803F00203002B20D0A2
:102604007B681B6803F00403002B05D0594B5B68FF
:10261400584A43F4E06353607B681B6803F0080383
:10262400002B05D0534B5B68524A43F4605353600C
:10263400504B5B6823F0F0027B689B684D49134361
:102644004B607B681B6803F00103002B40D07B6860
:102654005B68012B07D1474B1B6803F40033002B45
:1026640015D101237FE07B685B68022B07D1414BC6
:102674001B6803F00073002B09D1012373E03D4B69
:102684001B6803F00203002B01D101236BE0394BDB
:102694005B6823F003027B685B68364913434B6035
:1026A400FEF7F8FDF8600AE0FEF7F4FD0246FB6869
:1026B400D31A41F28832934201D9032353E02D4BBC
:1026C4005B6803F00C027B685B689B009A42EBD169
:1026D400274B1B6803F007033A689A4210D2244B35
:1026E4001B6823F0070222493B6813430B60204B0D
:1026F4001B6803F007033A689A4201D0012332E0D1
:102704007B681B6803F00403002B08D0194B5B683B
:1027140023F4E0627B68DB68164913434B607B68F3
:102724001B6803F00803002B09D0124B5B6823F4E9
:1027340060527B681B69DB000E4913434B6000F059
:1027440021F802460B4B5B681B0903F00F030A498F
:10275400CB5C22FA03F3094A1360094B1B68184641
:10276400FEF756FD002318461037BD4680BD00BF56
:102774000020024000100240A0430008080000208E
:102784000C00002090B48AB000AF294B3C1D0FCB45
:1027940084E80F0040F201233B800023FB61002307
:1027A400BB6100237B6200237B6100233B62214BDE
:1027B4005B68FB61FB6903F00C03042B02D0082B5C
:1027C40003D02BE01C4B3B622BE0FB699B0C03F01A
:1027D4000F0328333B4413F8243C7B61FB6903F467
:1027E4008033002B12D0134B5B685B0C03F00103A6
:1027F40028333B4413F8283CBB617B690E4A03FB36
:1028040002F2BB69B2FBF3F37B6204E07B690B4A1F
:1028140002FB03F37B627B6A3B6202E0064B3B6292
:1028240000BF3B6A18462837BD4690BC704700BFBE
:10283400243C00080010024000127A0000093D0008
:1028440080B400AF024B1B681846BD4680BC70477D
:102854000800002080B500AFFFF7F2FF0246054BE9
:102864005B681B0A03F007030349CB5C22FA03F3FA
:10287400184680BD00100240B043000880B500AF88
:10288400FFF7DEFF0246054B5B68DB0A03F0070334
:102894000349CB5C22FA03F3184680BD00100240C2
:1028A400B043000880B485B000AF78600A4B1B6861
:1028B4000A4AA2FB03235B0A7A6802FB03F3FB6068
:1028C40000BFFB685A1EFA60002BF9D100BF00BF9D
:1028D4001437BD4680BC704708000020D34D6210F9
:1028E40080B582B000AF78607B68002B01D10123F2
:1028F4003FE07B6893F83D30DBB2002B06D17B6868
:10290400002283F83C207868FEF7C8FB7B68242209
:1029140083F83D207B681B68DA687B681B6822F4B7
:102924000052DA60786800F025FC7B681B681A693D
:102934007B681B6822F490421A617B681B685A69A1
:102944007B681B6822F02A025A617B681B68DA687C
:102954007B681B6842F40052DA607B6800221A64C8
:102964007B68202283F83D207B68202283F83E2068
:10297400002318460837BD4680BD80B58AB002AF33
:10298400F860B9603B601346FB8000237B61FB6801
:1029940093F83D30DBB2202B7CD1BB68002B02D0F6
:1029A400FB88002B01D1012375E0FB6893F83C30D0
:1029B400012B01D102236EE0FB68012283F83C2045
:1029C400FB6800221A64FB68212283F83D20FEF78D
:1029D40061FC7861FB68FA889A84FB68FA88DA8477
:1029E400FB689B68B3F5805F08D1FB681B69002B0B
:1029F40004D10023FB61BB68BB6103E0BB68FB61DE
:102A04000023BB61FB68002283F83C202AE03B687A
:102A140000937B6900228021F86800F011FA0346D4
:102A2400002B01D0032336E0FB69002B0BD1BB69DB
:102A34001B881A46FB681B68C2F308025A60BB690C
:102A44000233BB6107E0FB691A78FB681B685A60B4
:102A5400FB690133FB61FB68DB8C9BB2013B9AB2DF
:102A6400FB68DA84FB68DB8C9BB2002BCFD13B681C
:102A740000937B6900224021F86800F0E1F90346E5
:102A8400002B01D0032306E0FB68202283F83D20BD
:102A9400002300E0022318462037BD4680BD000015
:102AA40080B58AB000AF78607B681B681B687B6266
:102AB4007B681B68DB683B627B681B685B69FB6146
:102AC4000023BB6100237B617B6A03F00F03BB61BE
:102AD400BB69002B0DD17B6A03F02003002B08D0C7
:102AE4003B6A03F02003002B03D0786800F099FAC6
:102AF4007BE1BB69002B00F0B180FB6903F00103AB
:102B0400002B05D13B6A03F49073002B00F0A680E0
:102B14007B6A03F00103002B0AD03B6A03F4807341
:102B2400002B05D07B681B6C43F001027B681A64A0
:102B34007B6A03F00403002B0AD0FB6903F0010352
:102B4400002B05D07B681B6C43F002027B681A647F
:102B54007B6A03F00203002B0AD0FB6903F0010334
:102B6400002B05D07B681B6C43F004027B681A645D
:102B74007B6A03F00803002B0FD03B6A03F02003A9
:102B8400002B04D1FB6903F00103002B05D07B6803
:102B94001B6C43F008027B681A647B681B6C002B77
:102BA40000F01E817B6A03F02003002B07D03B6AF0
:102BB40003F02003002B02D0786800F032FA7B681F
:102BC4001B685B6903F04003002B14BF012300233F
:102BD400DBB27B617B681B6C03F00803002B02D122
:102BE4007B69002B31D0786800F074F97B681B682E
:102BF4005B6903F04003002B23D07B681B685A6990
:102C04007B681B6822F040025A617B689B6B002B37
:102C140013D07B689B6B764A5A637B689B6B184620
:102C2400FEF724FD0346002B16D07B689B6B5B6B81
:102C34007A68926B104698470EE0786800F0ECF8DA
:102C44000AE0786800F0E8F806E0786800F0E4F854
:102C54007B6800221A64C3E000BFC1E07B681B6B81
:102C6400012B40F0A1807B6A03F01003002B00F0DD
:102C74009B803B6A03F01003002B00F09580002337
:102C8400FB607B681B681B68FB607B681B685B6878
:102C9400FB60FB687B681B685B6903F04003002BE7
:102CA4004ED07B689B6B1B685B683B823B8A002B26
:102CB40000F098807B689B8D3A8A9A4280F09280DB
:102CC4007B683A8ADA857B689B6B9B69202B2BD0C7
:102CD4007B681B68DA687B681B6822F48072DA60A0
:102CE4007B681B685A697B681B6822F001025A6181
:102CF4007B681B685A697B681B6822F040025A6132
:102D04007B68202283F83E207B6800221A637B685C
:102D14001B68DA687B681B6822F01002DA607B6843
:102D24009B6B1846FEF768FC7B689A8D7B68DB8D8D
:102D34009BB2D31A9BB21946786800F076F851E03A
:102D44007B689A8D7B68DB8D9BB2D31A7B827B6810
:102D5400DB8D9BB2002B47D07B8A002B44D07B6851
:102D64001B68DA687B681B6822F49072DA607B68FF
:102D74001B685A697B681B6822F001025A617B68F0
:102D8400202283F83E207B6800221A637B681B683C
:102D9400DA687B681B6822F01002DA607B8A1946C5
:102DA400786800F042F81FE07B6A03F08003002B90
:102DB40008D03B6A03F08003002B03D0786800F04E
:102DC400C9F812E07B6A03F04003002B0DD03B6A84
:102DD40003F04003002B08D0786800F00AF904E0FF
:102DE40000BF02E000BF00E000BF2837BD4680BD41
:102DF400312F000880B483B000AF786000BF0C3777
:102E0400BD4680BC704780B483B000AF786000BF1B
:102E14000C37BD4680BC704780B483B000AF786087
:102E240000BF0C37BD4680BC704780B483B000AF90
:102E340078600B467B8000BF0C37BD4680BC704772
:102E440080B584B000AFF860B9603B601346FB7195
:102E54002CE0BB69B3F1FF3F28D0BB69002B07D03E
:102E6400FEF718FA02463B68D31ABA699A421DD291
:102E7400FB681B68DA68FB681B6822F4D072DA60AE
:102E8400FB681B685A69FB681B6822F001025A61DF
:102E9400FB68202283F83D20FB68202283F83E2033
:102EA400FB68002283F83C2003230FE0FB681B68C7
:102EB4001A68BB681340BA689A420CBF0123002306
:102EC400DBB21A46FB799A42C3D000231846103766
:102ED400BD4680BD80B483B000AF78607B681B685A
:102EE400DA687B681B6822F49072DA607B681B687E
:102EF4005A697B681B6822F001025A617B681B6B6C
:102F0400012B07D17B681B68DA687B681B6822F099
:102F14001002DA607B68202283F83E207B6800225E
:102F24001A6300BF0C37BD4680BC704780B584B0BF
:102F340000AF78607B685B6AFB60FB680022DA851F
:102F4400FB680022DA84F868FFF766FF00BF1037D9
:102F5400BD4680BD80B485B000AF78607B6893F8CF
:102F64003D30DBB2212B3ED17B689B68B3F5805F9B
:102F740014D17B681B69002B10D17B681B6AFB6032
:102F8400FB681B881A467B681B68C2F308025A60F8
:102F94007B681B6A9A1C7B681A6208E07B681B6A60
:102FA400591C7A6811621A787B681B685A607B68BE
:102FB400DB8C9BB2013B9BB27A681946D184002B0F
:102FC4000FD17B681B68DA687B681B6822F080027B
:102FD400DA607B681B68DA687B681B6842F0400231
:102FE400DA60002300E0022318461437BD4680BC93
:102FF400704780B582B000AF78607B681B68DA6880
:103004007B681B6822F04002DA607B68202283F828
:103014003D207868FFF7EEFE002318460837BD46CA
:1030240080BD80B586B000AF78607B6893F83E3091
:10303400DBB2222B40F099807B689B68B3F5805FFC
:1030440017D17B681B69002B13D100237B617B683C
:103054009B6A3B617B681B685B689BB2C3F3080394
:103064009AB23B691A807B689B6A9A1C7B689A6255
:1030740026E07B689B6A7B6100233B617B689B68DD
:10308400B3F5805F07D07B689B68002B0AD17B680F
:103094001B69002B06D17B681B685B68DAB27B690D
:1030A4001A7008E07B681B685B68DBB203F07F037F
:1030B400DAB27B691A707B689B6A5A1C7B689A62D5
:1030C4007B68DB8D9BB2013B9BB27A681946D18544
:1030D400002B48D17B681B68DA687B681B6822F088
:1030E4002002DA607B681B68DA687B681B6822F45C
:1030F4008072DA607B681B685A697B681B6822F0FF
:1031040001025A617B68202283F83E207B681B6B96
:10311400012B23D17B6800221A637B681B68DA6861
:103124007B681B6822F01002DA607B681B681B68EE
:1031340003F01003102B0AD10023FB607B681B688B
:103144001B68FB607B681B685B68FB60FB687B68D3
:103154009B8D19467868FFF768FE02E07868FFF7F0
:1031640052FE002302E0002300E002231846183731
:10317400BD4680BD80B584B000AF78607B681B68B5
:103184001B6923F440517B68DA687B681B680A4337
:103194001A617B689A687B681B691A437B685B6960
:1031A4001343BB607B681B68DB6823F4B05323F0D4
:1031B4000C037A681268B9680B43D3607B681B6898
:1031C4005B6923F440717B689A697B681B680A43D6
:1031D4005A617B681B682C4A934203D1FFF74EFB6C
:1031E400F86002E0FFF736FBF860FA6813469B00CC
:1031F40013449A001A447B685B689B00B2FBF3F3A8
:10320400224AA2FB03235B091901FA6813469B00B7
:1032140013449A001A447B685B689B00B2FBF3F288
:103224001A4BA3FB02035B09642000FB03F3D31ACC
:103234001B013233154AA2FB03235B0903F0F0039D
:103244001944FA6813469B0013449A001A447B6895
:103254005B689B00B2FBF3F20C4BA3FB02035B091C
:10326400642000FB03F3D31A1B013233074AA2FB89
:1032740003235B0903F00F027B681B680A449A600E
:1032840000BF1037BD4680BD003801401F85EB519B
:10329400014B1868704700BF1400002070B5002669
:1032A4000C4D0D4C641BA410A64209D100F09CFCEB
:1032B40000260A4D0A4C641BA410A64205D170BD19
:1032C40055F8043B98470136EEE755F8043B984718
:1032D4000136F2E7EC430008EC430008EC43000835
:1032E400F043000803460244934200D1704703F8B8
:1032F400011BF9E70EB46FF0004100B59CB01DABA3
:1033040002900690079104910848094953F8042B48
:103314000591006802A9019300F068F80022029B5D
:103324001A701CB05DF804EB03B070471400002061
:103334000802FFFF2DE9F0478E6882469E420C4644
:1033440090461F4638D88A8912F4906F32D0256887
:1033540009690133A5EB010965694B4405EB450592
:1033640005EBD5756D109D4238BF1D46530531D50B
:10337400294600F06FFB064650B90C234FF0FF308E
:10338400CAF80030A38943F04003A381BDE8F08765
:103394004A46216900F0CEFAA38923F4906343F0EE
:1033A4008003A38126614E4426603E466561A5EBF9
:1033B4000905A560BE4200D93E4632464146206812
:1033C40000F0C6FAA36800209B1BA3602368334463
:1033D4002360DBE72A4600F0B1FB06460028E1D172
:1033E4005046216900F0CEFAC7E700002DE9F04FFE
:1033F40098468B8907461B060D4614469DB00ED58C
:103404000B6963B9402100F025FB2860286120B9CD
:103414000C233B604FF0FF30D1E040236B6100236D
:10342400099320238DF8293030234FF00109CDF87A
:103434000C80DFF8A4818DF82A3023469A4613F8CD
:10344400012B0AB1252AF9D1BAEB040B0BD05B4648
:10345400224629463846FFF76DFF013000F0AA8066
:10346400099A5A4409929AF80030002B00F0A2807D
:1034740000234FF0FF32CDE905230AF1010A04933A
:1034840007938DF853301A935446052214F8011B00
:10349400514800F041FA049AD8B9D00644BF202319
:1034A4008DF85330110744BF2B238DF853309AF80D
:1034B40000302A2B15D0544600204FF00A0C079AEE
:1034C400214611F8013B303B092B4ED9B0B107928C
:1034D40014E0A0EB080309FA03F31343A246049390
:1034E400D2E7039B191D1B680391002BBBBF5B42F2
:1034F40042F0020207930793B8BF049223782E2B5D
:103504000CD163782A2B35D1039B02341A1D1B6816
:103514000392002BB8BF4FF0FF330593DFF8BCA034
:1035240003225046217800F0F7F940B14023A0EB84
:103534000A0003FA00F0049B01340343049314F8D3
:10354400011B062226488DF8281000F0E5F9002812
:1035540038D0244B1BBB039B073323F007030833EA
:103564000393099B3344099367E70C4601200CFB42
:103574000232A5E700234FF00A0C194601340593E3
:10358400204610F8012B303A092A03D9002BC5D064
:103594000591C3E7044601230CFB0121F0E703ABCB
:1035A40000932A463846104B04A9AFF30080421C0E
:1035B4000646D6D1AB895B063FF52CAF09981DB002
:1035C400BDE8F08F03AB00932A463846064B04A9A6
:1035D40000F07CF8EBE700BFB8430008BE430008E6
:1035E400C243000800000000393300082DE9F04709
:1035F400164699468A680B6907469342B8BF134634
:10360400336091F843200C46DDF820800AB1013381
:1036140033602368990642BF3368023333602568F8
:1036240015F0060506D104F1190AE36832689B1AFD
:10363400AB4228DC94F84320131E226818BF0123F0
:1036440092062DD44946384604F14302C04701305E
:1036540020D02368E56803F00603042B18BF002577
:1036640032684FF00006A36808BFAD1A226908BF8C
:1036740025EAE5759342C4BF9B1AED181A34B54286
:103684001AD1002008E00123524649463846C04773
:10369400013003D14FF0FF30BDE8F0870135C4E7B6
:1036A4003020E11881F843005A1C94F84510224454
:1036B400023382F84310C5E70123224649463846BF
:1036C400C0470130E6D00136D9E700002DE9FF47B5
:1036D4000F7E9146782F80460C469A460C9D01F148
:1036E400430207D8622F0AD8002F00F0D980582F40
:1036F40000F0A48004F1420584F842703AE0A7F196
:103704006303152BF6D801A151F823F0693700089B
:103714007D370008F9360008F9360008F936000844
:10372400F93600087D370008F9360008F936000834
:10373400F9360008F93600088B380008AD37000860
:103744006D380008F9360008F9360008AD3800086D
:10375400F9360008AD370008F9360008F9360008D4
:10376400753800082B681A1D1B682A6004F142058D
:1037740084F842300123A4E020682968060601F198
:1037840004030AD50E682B60002E03DA2D2376423B
:1037940084F843300A235E4819E00E6810F0400FA5
:1037A4002B6018BF36B2EFE72B682068191D29601B
:1037B400010601D51E6802E04606FBD51E886F2F60
:1037C4000CBF08230A235248002184F8431065687B
:1037D400002DA8BF2168A560A4BF21F004012160C9
:1037E4000EB9002D4DD01546B6FBF3F103FB11675E
:1037F400C75D05F8017D3746BB420E46F4D9082B58
:103804000BD12368DE0708D5236961689942DEBFBE
:10381400302305F8013C05F1FF35521B22614B466C
:1038240021464046CDF800A003AAFFF7DFFE013091
:103834004CD14FF0FF3004B0BDE8F087344881F834
:1038440045702968236851F8046B29601D0614D556
:10385400DF0744BF43F0200323601EB9236823F02D
:10386400200323601023AFE7236843F02003236081
:103874007823284884F84530E3E7590648BFB6B2B0
:10388400E6E71546BBE72B682668181D61692860C2
:1038940035061B6801D5196002E07006FBD5198056
:1038A400002315462361BAE72B6800211A1D2A60FC
:1038B4001D686268284600F02FF808B1401B60605C
:1038C40063682361002384F84330A8E72A46494605
:1038D40040462369D0470130ABD023689B0713D4FB
:1038E400E068039B9842B8BF1846A4E70123324618
:1038F40049464046D04701309BD00135E3680399DF
:103904005B1AAB42F2DCEBE7002504F11906F5E79C
:10391400C9430008DA430008034610B5C9B202449B
:103924009342184601D1002003E0047801338C420D
:10393400F6D110BD0A44914200F1FF3300D1704723
:1039440010B511F8014B914203F8014FF9D110BDA4
:10395400884210B501EB020402D98442234607D8F9
:10396400431EA14208D011F8012B03F8012FF8E7F8
:10397400014602448A4200D110BD13F8014D02F8F9
:10398400014DF7E738B50546002940D051F8043C0D
:103994000C1F002BB8BFE41800F010F91C4A136880
:1039A40033B9636014602846BDE8384000F00CB9B0
:1039B400A34208D9206821188B4201BF19685B68AB
:1039C40009182160EDE71A465B680BB1A342FAD9E6
:1039D40011685018A0420BD120680144501883424A
:1039E4001160E0D118685B68014411605360DAE744
:1039F40002D90C232B60D6E7206821188B4201BF23
:103A040019685B680918216063605460CBE738BDAE
:103A14003C03002070B50E4E0C463168054611B9C2
:103A240000F0BCF830602146284600F0B7F8431C8B
:103A34000AD0C41C24F00304A04207D0211A28464B
:103A440000F0ACF8013001D14FF0FF34204670BDD6
:103A5400400300202DE9F041CD1C25F00305083575
:103A64000C2D38BF0C25002D074601DBA94205D9D2
:103A74000C2300263B603046BDE8F0812E4E00F05A
:103A84009DF833681C4634BB29463846FFF7C2FF0D
:103A9400431C04464DD134682646002E40D1236889
:103AA4003146384604EB030800F078F880453AD1F3
:103AB400216803356D1A25F0030508350C2D38BF30
:103AC4000C2538462946FFF7A5FF01302BD0236883
:103AD4002B4423600EE02268521B1ED40B2A16D9F5
:103AE4006119A342256018BF5960636808BF31603B
:103AF40062514B60384604F10B0600F065F826F07D
:103B04000706231DF21AB6D09B1BA350B3E76268C5
:103B1400A3420CBF32605A60ECE723466468B2E704
:103B240034467668B9E70C2338463B6000F04CF81D
:103B3400A1E72560DEE700BF3C0300202DE9F0414A
:103B4400804614460E4621B91146BDE8F041FFF700
:103B540081BF2AB9FFF716FF25462846BDE8F08144
:103B640000F038F88442074602D8B4EB500F12D85C
:103B740021464046FFF76EFF05460028EDD0BC42C3
:103B84002246314628BF3A46FFF7D4FE3146404626
:103B9400FFF7F8FEE1E73546DFE7000038B500231C
:103BA400054D044608462B60FDF712FA431C02D16A
:103BB4002B6803B1236038BD44030020014800F0A2
:103BC40011B800BF48030020014800F00CB800BF42
:103BD4004803002051F8043C181F002BBCBF0B58AD
:103BE400C018704770477047F8B500BFF8BC08BCF0
:103BF4009E467047F8B500BFF8BC08BC9E467047A7
:103C040048656C6C6F20596168626F6F6D000000CD
:103C1400256400005072657373204B4559310000D0
:103C240002030405060708090A0B0C0D0E0F1010F9
:103C34000000000000000000000000000000000080
:103C44000000000000100010001000100010001010
:103C540000000010000000000028002800280000D8
:103C64000000000000000000000000000024002408
:103C7400007C00240048007C00480048000000004C
:103C84000038005400500038001400540054003828
:103C94000010000000200054005800300028005498
:103CA4000014000800000000001000280028001084
:103CB40000340048004800340000000000100010E8
:103CC40000100000000000000000000000000000E0
:103CD4000008001000200020002000200020002008
:103CE4000010000800200010000800080008000868
:103CF4000008000800100020001000380010002800
:103D040000000000000000000000000000000000AF
:103D140000100010007C00100010000000000000E3
:103D2400000000000000000000000000000000107F
:103D34000010001000000000000000000000003827
:103D4400000000000000000000000000000000006F
:103D5400000000000000001000000000000800083F
:103D640000100010001000100020002000000000CF
:103D74000038004400440054004400440044003827
:103D8400000000000010003000500010001000106F
:103D9400001000100000000000380044004400043B
:103DA400000800100020007C0000000000380044DF
:103DB400000400180004000400440038000000005F
:103DC40000080018002800280048007C00080008AB
:103DD40000000000007C0040004000780004000463
:103DE400004400380000000000380044004000781F
:103DF400004400440044003800000000007C00043B
:103E04000008001000100020002000200000000026
:103E140000380044004400380044004400440038A2
:103E2400000000000038004400440044003C00044A
:103E340000440038000000000000000000100000F2
:103E4400000000000000001000000000000000005E
:103E5400000000100000000000000010001000101E
:103E640000000000000C003000400030000C000096
:103E740000000000000000000000007C0000007C46
:103E840000000000000000000000000000600018B6
:103E94000004001800600000000000000038004426
:103EA40000040008001000100000001000000000D2
:103EB40000380044004C0054005C004000400038CE
:103EC4000000000000100028002800280028007CC2
:103ED40000440044000000000078004400440078DE
:103EE400004400440044007800000000003800440E
:103EF4000040004000400040004400380000000042
:103F0400007000480044004400440044004800702D
:103F140000000000007C00400040007C00400040A5
:103F24000040007C00000000007C0040004000785D
:103F34000040004000400040000000000038004401
:103F440000400040005C00440044003800000000D1
:103F5400004400440044007C004400440044004405
:103F640000000000003800100010001000100010C5
:103F740000100038000000000004000400040004E5
:103F8400000400040044003800000000004400481D
:103F94000050006000500048004800440000000049
:103FA4000040004000400040004000400040007CD1
:103FB400000000000044006C006C00540044004405
:103FC4000044004400000000004400640064005405
:103FD4000054004C004C0044000000000038004431
:103FE4000044004400440044004400380000000041
:103FF4000078004400440044007800400040004041
:104004000000000000380044004400440044004420
:1040140000540038000400000078004400440044C8
:1040240000780048004800440000000000380044C4
:104034000040003000080004004400380000000084
:10404400007C001000100010001000100010001080
:1040540000000000004400440044004400440044C4
:1040640000440038000000000044004400440028DC
:104074000028002800100010000000000044004444
:10408400005400540054006C002800280000000074
:1040940000440028002800100010002800280044D4
:1040A4000000000000440044002800280010001014
:1040B4000010001000000000007C00040008001044
:1040C400001000200040007C0000000000180010D8
:1040D4000010001000100010001000100010001854
:1040E400002000200010001000100010000800083C
:1040F400000000000030001000100010001000103C
:1041040000100010001000300010002800280044A7
:10411400000000000000000000000000000000009B
:1041240000000000000000000000000000FE00008D
:10413400002000100000000000000000000000004B
:10414400000000000000000000380044003C00446F
:10415400004C00340000000000400040005800649F
:104164000044004400640058000000000000000007
:1041740000380044004000400044003800000000C3
:10418400000400040034004C00440044004C00349B
:10419400000000000000000000380044007C0040E3
:1041A4000044003800000000000C0010007C0010E7
:1041B40000100010001000100000000000000000BB
:1041C4000034004C00440044004C003400040078E7
:1041D400004000400058006400440044004400448F
:1041E400000000000010000000700010001000101B
:1041F400001000100000000000100000007000100B
:104204000010001000100010001000E000400040FA
:1042140000480050006000500048004400000000C6
:1042240000700010001000100010001000100010AA
:104234000000000000000000007800540054005406
:104244000054005400000000000000000058006406
:10425400004400440044004400000000000000004A
:1042640000380044004400440044003800000000CA
:10427400000000000058006400440044006400583A
:1042840000400040000000000034004C00440044A2
:10429400004C0034000400040000000000580064D6
:1042A400004000400040004000000000000000000A
:1042B40000380044003000080044003800000000CA
:1042C400002000200078002000200020002000189A
:1042D40000000000000000000044004400440044CA
:1042E400004C0034000000000000000000440044C2
:1042F4000028002800280010000000000000000032
:10430400005400540054006C0028002800000000F1
:1043140000000000004400280010001000280044A1
:1043240000000000000000000044004400280028B1
:10433400001000100010006000000000007C000865
:10434400001000200040007C000000000018001055
:1043540000100010002000200010001000100018B1
:1043640000100010001000100010001000100010C9
:1043740000100010003000100010001000080008A9
:104384000010001000100030000000000000007455
:10439400004C0000000000000000000000000000CD
:1043A40000000000010203040607080900000000E1
:1043B40001020304232D302B2000686C4C00656639
:1043C4006745464700303132333435363738394162
:1043D4004243444546003031323334353637383978
:0843E40061626364656600007C
:0443EC0009020008BA
:0443F000E5010008DB
:1043F400070A0000343C00080024F4001000000008
:10440400010000001800002000000000000000006F
:104414000000000000000000000000000000000098
:104424000000000000000000000000000000000088
:104434000000000000000000000000000000000078
:104444000000000000000000000000000000000068
:104454000000000000000000000000000000000058
:08446400000000000000000050
:040000050800119D41
:00000001FF
