:020000040800F2
:1000000000C0002021290008CD250008D3250008C4
:10001000D9250008DF250008E525000800000000BC
:10002000000000000000000000000000EB250008B8
:10003000F725000800000000032600080F2600082E
:100040006929000869290008692900086929000848
:100050006929000869290008692900086929000838
:100060006929000869290008692900086929000828
:1000700069290008692900081D2600086929000867
:100080006929000869290008692900086929000808
:1000900069290008692900086929000869290008F8
:1000A00069290008692900086929000869290008E8
:1000B00069290008692900086929000869290008D8
:1000C00069290008692900086929000869290008C8
:1000D00069290008312600086929000869290008F3
:1000E00069290008692900086929000869290008A8
:1000F0006929000869290008692900086929000898
:100100006929000869290008692900086929000887
:100110006929000869290008692900086929000877
:100120006929000869290008692900086929000867
:1001300000000000000000000000000000000000BF
:1001400000000000000000000000000000000000AF
:10015000000000000000000000000000000000009F
:10016000000000000000000000000000000000008F
:10017000000000000000000000000000000000007F
:10018000000000000000000000000000000000006F
:10019000000000000000000000000000000000005F
:1001A000000000000000000000000000000000004F
:1001B000000000000000000000000000000000003F
:1001C000000000000000000000000000000000002F
:1001D000000000000000000000000000000000001F
:0401E0005FF8E0F1F3
:1001E80010B5054C237833B9044B13B10448AFF369
:1001F80000800123237010BDE401002000000000EE
:100208000883000808B5034B1BB103490348AFF343
:10021800008008BD00000000E801002008830008F5
:10022800034613F8012B002AFBD1181A013870472E
:1002380081F0004102E000BF83F0004330B54FEA8F
:1002480041044FEA430594EA050F08BF90EA020FFC
:100258001FBF54EA000C55EA020C7FEA645C7FEA8F
:10026800655C00F0E2804FEA5454D4EB5555B8BFB2
:100278006D420CDD2C4480EA020281EA030382EA23
:10028800000083EA010180EA020281EA0303362DB5
:1002980088BF30BD11F0004F4FEA01314FF4801C88
:1002A8004CEA113102D0404261EB410113F0004F9A
:1002B8004FEA03334CEA133302D0524263EB430351
:1002C80094EA050F00F0A780A4F10104D5F1200EEF
:1002D8000DDB02FA0EFC22FA05F2801841F100014A
:1002E80003FA0EF2801843FA05F359410EE0A5F11E
:1002F80020050EF1200E012A03FA0EFC28BF4CF04F
:10030800020C43FA05F3C01851EBE37101F0004504
:1003180007D54FF0000EDCF1000C7EEB00006EEB11
:100328000101B1F5801F1BD3B1F5001F0CD349089B
:100338005FEA30004FEA3C0C04F101044FEA4452F2
:1003480012F5800F80F09A80BCF1004F08BF5FEA79
:10035800500C50F1000041EB045141EA050130BD59
:100368005FEA4C0C404141EB0101013C28BFB1F56B
:10037800801FE9D291F0000F04BF01460020B1FAB6
:1003880081F308BF2033A3F10B03B3F120020CDA89
:100398000C3208DD02F1140CC2F10C0201FA0CF067
:1003A80021FA02F10CE002F11402D8BFC2F1200CCC
:1003B80001FA02F120FA0CFCDCBF41EA0C01904082
:1003C800E41AA2BF01EB0451294330BD6FEA0404CB
:1003D8001F3C1CDA0C340EDC04F11404C4F12002B6
:1003E80020FA04F001FA02F340EA030021FA04F3C8
:1003F80045EA030130BDC4F10C04C4F1200220FA1F
:1004080002F001FA04F340EA0300294630BD21FA5C
:1004180004F0294630BD94F0000F83F4801306BF22
:1004280081F480110134013D4EE77FEA645C18BF16
:100438007FEA655C29D094EA050F08BF90EA020FAD
:1004480005D054EA000C04BF1946104630BD91EAA5
:10045800030F1EBF0021002030BD5FEA545C05D1A8
:100468004000494128BF41F0004130BD14F58004E7
:100478003CBF01F5801130BD01F0004545F0FE415B
:1004880041F470014FF0000030BD7FEA645C1ABF90
:10049800194610467FEA655C1CBF0B46024650EAC7
:1004A800013406BF52EA033591EA030F41F40021F3
:1004B80030BD00BF90F0000F04BF0021704730B579
:1004C8004FF4806404F132044FF000054FF000014E
:1004D80050E700BF90F0000F04BF0021704730B50F
:1004E8004FF4806404F1320410F0004548BF4042E4
:1004F8004FF000013EE700BF42004FEAE2014FEA39
:1005080031014FEA02701FBF12F07F4393F07F4F13
:1005180081F06051704732F07F4208BF704793F016
:100528007F4F04BF41F40021704730B54FF4607429
:1005380001F0004521F000411CE700BF50EA01022C
:1005480008BF704730B54FF000050AE050EA0102D5
:1005580008BF704730B511F0004502D5404261EB45
:1005680041014FF4806404F132045FEA915C3FF486
:10057800D8AE4FF003025FEADC0C18BF03325FEA23
:10058800DC0C18BF033202EBDC02C2F1200300FAD4
:1005980003FC20FA02F001FA03FE40EA0E0021FAF9
:1005A80002F11444BDE600BF70B54FF0FF0C4CF4E7
:1005B800E06C1CEA11541DBF1CEA135594EA0C0F99
:1005C80095EA0C0F00F0DEF82C4481EA030621EAD4
:1005D8004C5123EA4C5350EA013518BF52EA03350F
:1005E80041F4801143F4801338D0A0FB02CE4FF0C1
:1005F8000005E1FB02E506F00042E0FB03E54FF0F1
:100608000006E1FB03569CF0000F18BF4EF0010EE8
:10061800A4F1FF04B6F5007F64F5407404D25FEAE4
:100628004E0E6D4146EB060642EAC62141EA555197
:100638004FEAC52040EA5E504FEACE2EB4F1FD0CD9
:1006480088BFBCF5E06F1ED8BEF1004F08BF5FEA57
:10065800500E50F1000041EB045170BD06F0004609
:1006680046EA010140EA020081EA0301B4EB5C04B6
:10067800C2BFD4EB0C0541EA045170BD41F48011AE
:100688004FF0000E013C00F3AB8014F1360FDEBFD3
:10069800002001F0004170BDC4F10004203C35DAAF
:1006A8000C341BDC04F11404C4F1200500FA05F332
:1006B80020FA04F001FA05F240EA020001F00042D3
:1006C80021F0004110EBD37021FA04F642EB060149
:1006D8005EEA430E08BF20EAD37070BDC4F10C0473
:1006E800C4F1200500FA04F320FA05F001FA04F237
:1006F80040EA020001F0004110EBD37041F1000123
:100708005EEA430E08BF20EAD37070BDC4F120052D
:1007180000FA05F24EEA020E20FA04F301FA05F295
:1007280043EA020321FA04F001F0004121FA04F23D
:1007380020EA020000EBD3705EEA430E08BF20EA0D
:10074800D37070BD94F0000F0FD101F00046400047
:1007580041EB010111F4801F08BF013CF7D041EAC9
:10076800060195F0000F18BF704703F000465200CD
:1007780043EB030313F4801F08BF013DF7D043EA9E
:100788000603704794EA0C0F0CEA135518BF95EA54
:100798000C0F0CD050EA410618BF52EA4306D1D1DB
:1007A80081EA030101F000414FF0000070BD50EAFA
:1007B800410606BF1046194652EA430619D094EA84
:1007C8000C0F02D150EA013613D195EA0C0F05D16E
:1007D80052EA03361CBF104619460AD181EA0301C2
:1007E80001F0004141F0FE4141F470014FF000007A
:1007F80070BD41F0FE4141F4780170BD70B54FF015
:10080800FF0C4CF4E06C1CEA11541DBF1CEA135594
:1008180094EA0C0F95EA0C0F00F0A7F8A4EB050476
:1008280081EA030E52EA03354FEA013100F088806D
:100838004FEA03334FF0805545EA131343EA126336
:100848004FEA022245EA111545EA10654FEA0026EB
:100858000EF000419D4208BF964244F1FD0404F5A4
:10086800407402D25B084FEA3202B61A65EB030500
:100878005B084FEA32024FF480104FF4002CB6EBBD
:10088800020E75EB030E22BFB61A754640EA0C003D
:100898005B084FEA3202B6EB020E75EB030E22BF7D
:1008A800B61A754640EA5C005B084FEA3202B6EBBE
:1008B800020E75EB030E22BFB61A754640EA9C007D
:1008C8005B084FEA3202B6EB020E75EB030E22BF4D
:1008D800B61A754640EADC0055EA060E18D04FEA0B
:1008E800051545EA16754FEA06164FEAC30343EAAB
:1008F80052734FEAC2025FEA1C1CC0D111F4801F78
:100908000BD141EA00014FF000004FF0004CB6E770
:1009180011F4801F04BF01430020B4F1FD0C88BF0F
:10092800BCF5E06F3FF6AFAEB5EB030C04BFB6EB1A
:10093800020C5FEA500C50F1000041EB045170BD0D
:100948000EF0004E4EEA113114EB5C04C2BFD4EB3A
:100958000C0541EA045170BD41F480114FF0000EBE
:10096800013C90E645EA060E8DE60CEA135594EA3A
:100978000C0F08BF95EA0C0F3FF43BAF94EA0C0F3D
:100988000AD150EA01347FF434AF95EA0C0F7FF4B2
:1009980025AF104619462CE795EA0C0F06D152EA06
:1009A80003353FF4FDAE1046194622E750EA4106EA
:1009B80018BF52EA43067FF4C5AE50EA41047FF4FB
:1009C8000DAF52EA43057FF4EBAE12E74FF0FF3C60
:1009D80006E000BF4FF0010C02E000BF4FF0010C31
:1009E8004DF804CD4FEA410C7FEA6C5C4FEA430CAA
:1009F80018BF7FEA6C5C1BD001B050EA410C0CBFF9
:100A080052EA430C91EA030F02BF90EA020F00205A
:100A1800704710F1000F91EA030F58BF994208BFC1
:100A280090422CBFD8176FEAE37040F0010070477E
:100A38004FEA410C7FEA6C5C02D150EA013C07D1D5
:100A48004FEA430C7FEA6C5CD6D152EA033CD3D020
:100A58005DF8040B704700BF8446104662468C461A
:100A68001946634600E000BF01B5FFF7B7FF00284D
:100A780048BF10F1000F01BD4DF808EDFFF7F4FF76
:100A88000CBF012000205DF808FB00BF4DF808ED01
:100A9800FFF7EAFF34BF012000205DF808FB00BF24
:100AA8004DF808EDFFF7E0FF94BF012000205DF846
:100AB80008FB00BF4DF808EDFFF7CEFF94BF0120FB
:100AC80000205DF808FB00BF4DF808EDFFF7C4FFF4
:100AD80034BF012000205DF808FB00BF4FEA410C3D
:100AE8007FEA6C5C02D150EA013C0AD14FEA430C20
:100AF8007FEA6C5C02D152EA033C02D14FF000005D
:100B080070474FF0010070474FEA410212F500129A
:100B180015D211D56FF47873B3EB625212D94FEA3C
:100B2800C12343F0004343EA505311F0004F23FA26
:100B380002F018BF404270474FF00000704750EA7B
:100B4800013005D111F0004008BF6FF00040704738
:100B58004FF00000704700BF4FEA4102B2F1E04396
:100B680024BFB3F5001CDCF1FE5C0DD901F0004C8C
:100B78004FEAC0024CEA5070B2F1004F40EB8300DC
:100B880008BF20F00100704711F0804F21D113F108
:100B98003872BCBF01F00040704741F480114FEA41
:100BA8005252C2F11802C2F1200C10FA0CF320FACA
:100BB80002F018BF40F001004FEAC1234FEAD323E7
:100BC80003FA0CFC40EA0C0023FA02F34FEA430351
:100BD800CCE77FEA625307D150EA01331EBF4FF0DA
:100BE800FE4040F44000704701F0004040F0FE40F5
:100BF80040F40000704700BF80F0004002E000BFF2
:100C080081F0004142001FBF5FEA410392EA030FEF
:100C18007FEA226C7FEA236C6AD04FEA1262D2EB39
:100C28001363C1BFD218414048404140B8BF5B423E
:100C3800192B88BF704710F0004F40F4000020F0D7
:100C48007F4018BF404211F0004F41F4000121F0ED
:100C58007F4118BF494292EA030F3FD0A2F1010237
:100C680041FA03FC10EB0C00C3F1200301FA03F175
:100C780000F0004302D5494260EB4000B0F5000F98
:100C880013D3B0F1807F06D340084FEA310102F157
:100C98000102FE2A51D2B1F1004F40EBC25008BF09
:100CA80020F0010040EA03007047490040EB0000D3
:100CB800013A28BFB0F5000FEDD2B0FA80FCACF1D4
:100CC800080CB2EB0C0200FA0CF0AABF00EBC25001
:100CD80052421843BCBFD0401843704792F0000FEF
:100CE80081F4000106BF80F400000132013BB5E742
:100CF8004FEA41037FEA226C18BF7FEA236C21D0B8
:100D080092EA030F04D092F0000F08BF084670471C
:100D180090EA010F1CBF0020704712F07F4F04D1EA
:100D2800400028BF40F00040704712F100723CBFFD
:100D380000F50000704700F0004343F0FE4040F427
:100D4800000070477FEA226216BF08467FEA2363E5
:100D58000146420206BF5FEA412390EA010F40F4D0
:100D6800800070474FF0000304E000BF10F000431C
:100D780048BF40425FEA000C08BF704743F0964303
:100D880001464FF000001CE050EA010208BF70471E
:100D98004FF000030AE000BF50EA010208BF7047A5
:100DA80011F0004302D5404261EB41015FEA010CBA
:100DB80002BF84460146002043F0B64308BFA3F1B2
:100DC8008053A3F50003BCFA8CF2083AA3EBC25394
:100DD80010DB01FA02FC634400FA02FCC2F12002B3
:100DE800BCF1004F20FA02F243EB020008BF20F0EA
:100DF8000100704702F1200201FA02FCC2F1200250
:100E080050EA4C0021FA02F243EB020008BF20EA44
:100E1800DC7070474FF0FF0C1CEAD0521EBF1CEA72
:100E2800D15392EA0C0F93EA0C0F6FD01A4480EA60
:100E3800010C400218BF5FEA41211ED04FF0006349
:100E480043EA501043EA5111A0FB01310CF0004075
:100E5800B1F5000F3EBF490041EAD3715B0040EA9B
:100E6800010062F17F02FD2A1DD8B3F1004F40EB6B
:100E7800C25008BF20F00100704790F0000F0CF03E
:100E8800004C08BF49024CEA502040EA51207F3A02
:100E9800C2BFD2F1FF0340EAC250704740F40000DD
:100EA8004FF00003013A5DDC12F1190FDCBF00F0CE
:100EB80000407047C2F10002410021FA02F1C2F17C
:100EC800200200FA02FC5FEA310040F1000053EA18
:100ED8004C0308BF20EADC70704792F0000F00F066
:100EE800004C02BF400010F4000F013AF9D040EA6C
:100EF8000C0093F0000F01F0004C02BF490011F400
:100F0800000F013BF9D041EA0C018FE70CEAD153FD
:100F180092EA0C0F18BF93EA0C0F0AD030F0004C7D
:100F280018BF31F0004CD8D180EA010000F0004031
:100F3800704790F0000F17BF90F0004F084691F0EF
:100F4800000F91F0004F14D092EA0C0F01D1420229
:100F58000FD193EA0C0F03D14B0218BF084608D1F2
:100F680080EA010000F0004040F0FE4040F400003C
:100F7800704740F0FE4040F4400070474FF0FF0CCF
:100F88001CEAD0521EBF1CEAD15392EA0C0F93EA16
:100F98000C0F69D0A2EB030280EA010C49024FEA68
:100FA800402037D04FF0805343EA111143EA101321
:100FB8000CF000408B4238BF5B0042F17D024FF4D9
:100FC800000C8B4224BF5B1A40EA0C00B3EB510FB4
:100FD80024BFA3EB510340EA5C00B3EB910F24BF9D
:100FE800A3EB910340EA9C00B3EBD10F24BFA3EB22
:100FF800D10340EADC001B0118BF5FEA1C1CE0D1EA
:10100800FD2A3FF650AF8B4240EBC25008BF20F09C
:10101800010070470CF0004C4CEA50207F32C2BFF0
:10102800D2F1FF0340EAC250704740F400004FF08D
:101038000003013A37E792F0000F00F0004C02BFBE
:10104800400010F4000F013AF9D040EA0C0093F088
:10105800000F01F0004C02BF490011F4000F013BE2
:10106800F9D041EA0C0195E70CEAD15392EA0C0F4A
:1010780008D142027FF47DAF93EA0C0F7FF470AF82
:10108800084676E793EA0C0F04D14B023FF44CAFC5
:1010980008466EE730F0004C18BF31F0004CCAD15A
:1010A80030F000427FF45CAF31F000437FF43CAF96
:1010B8005FE700BF4FEA4002B2F1FE4F0FD34FF097
:1010C8009E03B3EB12620DD94FEA002343F00043AD
:1010D80010F0004F23FA02F018BF404270474FF05B
:1010E8000000704712F1610F01D1420205D110F0E2
:1010F800004008BF6FF0004070474FF00000704795
:1011080080B500AF094B1B780133DAB2074B1A7070
:10111800064B1B78142B07D9044B00221A704FF486
:101128000051034802F06BFB00BF80BD00020020A5
:101138000010014080B500AF01F050F800F044FD08
:1011480000F070FD322000F05DF800BF80BD0000A7
:1011580080B500AF012001F017F80346002B0DD031
:10116800322000F04FF80B4B1B680133094A13601B
:10117800084B1B681946084804F0FCFF00F036FFCE
:10118800FFF7BEFF00F07EF80A2001F04DFC00BF1B
:1011980080BD00BF040200202083000880B483B013
:1011A80000AF0346FB80044AFB88138000BF0C375E
:1011B800BD4680BC704700BF0802002080B400AF65
:1011C800024B1B881846BD4680BC704708020020A9
:1011D80080B483B000AF0346FB71044AFB791370F7
:1011E80000BF0C37BD4680BC704700BF0A02002014
:1011F80080B400AF024B1B781846BD4680BC7047D0
:101208000A02002080B582B000AF0346FB80FB884D
:10121800012B0BD10120FFF7DBFF0020FFF7BEFFFA
:1012280001222021154802F0D2FA22E0FB88002B87
:101238000BD10020FFF7CCFF0020FFF7AFFF002203
:1012480020210E4802F0C3FA13E0FB88092B10D9BD
:101258000220FFF7BDFFFB88094AA2FB0323DB0836
:101268009BB21846FFF79AFF01222021034802F09B
:10127800AEFA00BF0837BD4680BD00BF0010014070
:10128800CDCCCCCC80B500AFFFF7B2FF0346022B24
:1012980013D1FFF793FF0346002B06D0084B1B889A
:1012A800013B9AB2064B1A8007E00022202105482C
:1012B80002F08DFA0020FFF78BFF00BF80BD00BF52
:1012C800080200200010014080B500AF01224FF451
:1012D8008051024802F07BFA00BF80BD000C01403B
:1012E80080B500AF00224FF48051024802F06FFA37
:1012F80000BF80BD000C014080B584B000AF03463C
:10130800FB717F233B73FB797B73FFF7E9FF07F1E1
:101318000C010A230222044802F01EFFFFF7D4FF43
:1013280000BF1037BD4680BD5402002080B584B090
:1013380000AF03460A46FB711346BB71BB7963F0E5
:101348007F03DBB2FB73FB791846FFF7D5FFFFF786
:10135800C7FF07F10F014FF47A730122084802F022
:10136800FBFE07F10E014FF47A730122044803F0E3
:1013780036F8FFF7A9FFBB7B18461037BD4680BD7E
:101388005402002080B584B000AF0346FB710B46C1
:10139800BB7113467B71BB793B737B797B73FB799C
:1013A8001846FFF7A9FFFFF79BFF07F10C014FF461
:1013B8007A730222044802F0CFFEFFF785FF00BFD0
:1013C8001037BD4680BD00BF5402002080B584B0F0
:1013D80000AF0346FB710B46BB7113467B71BB79AB
:1013E80063F07F03DBB2FB73FB791846FFF784FFDA
:1013F800FFF776FF07F10F014FF47A7301220948CE
:1014080002F0AAFE7B799AB24FF47A73064905482E
:1014180002F0E5FFFFF758FF034B18461037BD46AB
:1014280080BD00BF540200204802002080B584B06F
:1014380000AF3A601A460346FB710B46BB71134670
:101448007B71BB79FB73FB791846FFF755FFFFF7F4
:1014580047FF07F10F014FF47A730122084802F0A1
:101468007BFE7B799AB24FF47A733968044802F0AC
:1014780073FEFFF729FF00BF1037BD4680BD00BFD0
:101488005402002080B582B000AF0346FB718C2265
:1014980003213020FFF776FFFB791A46042130201C
:1014A800FFF770FF812205213020FFF76BFF012035
:1014B80001F0BAFA3B210020FFF738FF034618462F
:1014C8000837BD4680BD80B582B000AF03460A46E6
:1014D800FB711346BB710C2203213020FFF752FF2A
:1014E800FB791A4604213020FFF74CFFBB791A46D6
:1014F80006213020FFF746FF812205213020FFF723
:1015080041FF00BF0837BD4680BD80B582B000AF3F
:1015180003460A46FB711346BB718C220321302017
:10152800FFF730FFFB791A4604213020FFF72AFF26
:10153800BB7963F07F03DBB21A4605213020FFF741
:1015480021FF012001F070FABB791A463B210020E7
:10155800FFF73CFF034618460837BD4680BD80B5F7
:1015680000AFC12206210020FFF70CFF642001F024
:101578005BFA00BF80BD80B500AF01213220FFF7C4
:10158800A2FF642001F050FA00BF80BD80B582B090
:1015980000AF06210020FFF7C9FE0346FB71FB7967
:1015A80023F04003FB71FB791A4606210020FFF760
:1015B800E9FE642001F038FA00BF0837BD4680BD57
:1015C80080B582B000AF03210020FFF7AFFE0346CD
:1015D800FB71FB7943F01003FB71FB791A46032179
:1015E8000020FFF7CFFE00BF0837BD4680BD80B59D
:1015F80082B000AF03210020FFF798FE0346FB717D
:10160800FB7943F00203FB71FB791A4603210020A2
:10161800FFF7B8FE00BF0837BD4680BD80B582B071
:1016280000AF03210020FFF781FE0346FB71FB7921
:1016380043F02003FB71FB791A4603210020FFF7D2
:10164800A1FE642001F0F0F900BF0837BD4680BD57
:1016580080B584B000AF0346FB7101213020FFF74D
:1016680065FE0346FB73FA7BFB791343FB73FB7B35
:101678001A4601213020FFF785FE00BF1037BD460E
:1016880080BD80B584B000AF0346FB710621002001
:10169800FFF74CFE0346FB73FA7BFB791343FB739E
:1016A800FB7B1A4606210020FFF76CFE00BF1037AF
:1016B800BD4680BD80B500AF012209212020FFF77B
:1016C80061FE00BF80BD80B584B000AF0346FB71EA
:1016D80001212020FFF72AFE0346FB73FB79DB007C
:1016E8005AB297F90F3013435BB2FB73FB7B1A4670
:1016F80001212020FFF746FE00BF1037BD4680BD00
:1017080080B584B000AF0346FB7114212020FFF799
:101718000DFE0346FB73FB79DB005AB297F90F30D5
:1017280013435BB2FB73FB7B1A4601212020FFF7B2
:1017380029FE00BF1037BD4680BD80B582B000AF1E
:101748000346FB71FB791A4600212020FFF71AFE99
:1017580000BF0837BD4680BD80B584B000AF0346E2
:10176800FB80FB881B0A9BB2FB73FB88DBB203F090
:101778000F03BB73FB7B1A4610212020FFF702FEE4
:10178800BB7B1A4611212020FFF7FCFD00BF103754
:10179800BD4680BD80B582B000AF0346FB71FB79C2
:1017A80019463120FFF78FFE642001F03DF900BF94
:1017B8000837BD4680BD000080B588B000AF07F18E
:1017C800080300221A605A609A6000233B600023D5
:1017D800BB800023FB6116E007F11403184600F0F4
:1017E8005FFABB68B7F914201344BB60FB68B7F90C
:1017F80016201344FB603B69B7F9182013443B617A
:10180800FB690133FB61FB69632BE5DDBB682A4A91
:1018180082FB03125211DB17D31ABB60FB68264AFE
:1018280082FB03125211DB17D31AFB603B69224A71
:1018380082FB03125211DB17D31A3B61BB685B4270
:10184800002B00DA03339B101B12DBB23B70BB6822
:101858005B42002B00DA03339B10DBB27B70FB6822
:101868005B42002B00DA03339B101B12DBB2BB7008
:10187800FB685B42002B00DA03339B10DBB2FB7082
:101888003B695B42002B00DA03339B101B12DBB26F
:101898003B713B695B42002B00DA03339B10DBB2E0
:1018A8007B713A46062303212020FFF7BFFD00BFC6
:1018B8002037BD4680BD00BF1F85EB5180B590B075
:1018C80000AF07F11C0300221A605A609A6007F102
:1018D800100300221A605A609A600023BB6000233C
:1018E800BB810023FB6316E007F12803184600F0CC
:1018F8000BFAFB69B7F928201344FB613B6AB7F977
:101908002A2013443B627B6AB7F92C2013447B627C
:10191800FB6B0133FB63FB6B632BE5DDFB69604A03
:1019280082FB03125211DB17D31AFB613B6A5C4A34
:1019380082FB03125211DB17D31A3B627B6A584AA7
:1019480082FB03125211DB17D31A7B62554A3B1DE7
:101958001268114619800233120C1A7002221421DF
:101968001020FFF733FDB863BB6B1B781B02BA6B03
:101978000132127813433B61BB6B01331B7803F0D0
:101988000103DBB23B71022217211020FFF71EFD75
:1019980078637B6B1B781B027A6B013212781343D6
:1019A8007B617B6B01331B7803F00103DBB27B7136
:1019B80002221A211020FFF709FD38633B6B1B78C0
:1019C8001B023A6B013212781343BB613B6B013344
:1019D8001B7803F00103DBB2BB713A69FB69002B8A
:1019E80000DA0733DB105B4213443B617A693B6AD8
:1019F800002B00DA0733DB105B4213447B61BA69C2
:101A08007B6A002B00DA0733DB105B421344BB61AF
:101A18003B691B12DBB23B723B69DBB223F001036B
:101A2800DBB27B727A7A3B791343DBB27B727B69D8
:101A38001B12DBB2BB727B69DBB223F00103DBB2A2
:101A4800FB72FA7A7B791343DBB2FB72BB691B1218
:101A5800DBB23B73BB69DBB223F00103DBB27B7300
:101A68007A7BBB791343DBB27B7307F1080202234D
:101A780014211020FFF7DAFC07F108039A1C02234F
:101A880017211020FFF7D2FC07F108031A1D0223C3
:101A98001A211020FFF7CAFC00BF4037BD4680BDA1
:101AA8001F85EB512C83000880B584B000AF034636
:101AB800FB7101212020FFF739FC0346FB73FB79FA
:101AC800032B27D801A252F823F000BFE51A00081B
:101AD800ED1A0008FD1A00080D1B0008124B134AE6
:101AE8001A6017E0FB7B43F00203FB730E4B104AAE
:101AF8001A600FE0FB7B43F00403FB730A4B0D4AAB
:101B08001A6007E0FB7B43F00603FB73064B0A4AA7
:101B18001A6000BFFB7B1A4601212020FFF732FC28
:101B280000BF1037BD4680BD000000200000034301
:101B380000008342333303423333834180B584B09A
:101B480000AF0346FB7114212020FFF7EFFB03468B
:101B5800FB73FB79032B2BD801A252F823F000BFAB
:101B6800791B0008831B0008951B0008A71B0008A9
:101B7800144B4FF08D421A601AE0FB7B43F00203CE
:101B8800FB73104B4FF08C421A6011E0FB7B43F063
:101B98000403FB730B4B4FF08B421A6008E0FB7B8E
:101BA80043F00603FB73074B4FF08A421A6000BFED
:101BB800FB7B1A4614212020FFF7E4FB00BF1037F7
:101BC800BD4680BD0400002080B500AF00BF00F016
:101BD80042F8034683F00103DBB2002BF7D1FFF78D
:101BE800BEFCFFF7D3FC0120FFF74BFDFFF762FDBA
:101BF800FFF7E6FC0020FFF766FD0020FFF780FDF9
:101C08000020FFF79AFD0020FFF7A6FDFFF7D4FD9F
:101C1800FFF754FE0320FFF747FF0320FFF78EFF6F
:101C280000BF80BD80B500AFFFF7E1FCFFF7F6FC11
:101C38000720FFF70DFD00BF00F020F8034683F0F2
:101C48000103DBB2002BF7D1FFF795FC0820FFF763
:101C5800A1FD00BF80BD80B582B000AF002100208B
:101C6800FFF764FB0346FB71FB79EA2B01D10123E3
:101C780000E0002318460837BD4680BD80B582B015
:101C880000AF0120FFF7FEFB0346FB71FB79092B30
:101C980001D1012300E0002318460837BD4680BD66
:101CA80080B584B000AF7860062233210020FFF7AA
:101CB8008DFBF860FB681B781B021AB2FB680133C6
:101CC8001B781BB213431AB27B681A80FB68023375
:101CD8001B781B021AB2FB6803331B781BB2134331
:101CE8001AB27B685A80FB6804331B781B021AB24D
:101CF800FB6805331B781BB213431AB27B689A80C2
:101D080000BF1037BD4680BD80B584B000AF786095
:101D180006222D210020FFF759FBF860FB681B788D
:101D28001B021AB2FB6801331B781BB213431AB2A9
:101D38007B681A80FB6802331B781B021AB2FB68A7
:101D480003331B781BB213431AB27B685A80FB68B3
:101D580004331B781B021AB2FB6805331B781BB2CD
:101D680013431BB21846FFF701F80246084B1B68DD
:101D780019461046FEF746FF03461846FFF79AF93C
:101D880003461AB27B689A8000BF1037BD4680BDF3
:101D98000400002080B586B000AF78601020FFF7FF
:101DA80071FB034603F00103FB75FB7D002B01D19A
:101DB800002337E006211120FFF7A7FB3861182020
:101DC800FFF760FB034603F00803FB73FB7B002B64
:101DD80001D0002326E03B6901331B781B021AB2AD
:101DE8003B691B781BB213431AB27B681A803B69A4
:101DF80003331B781B021AB23B6902331B781BB2F0
:101E080013431AB27B685A803B6905331B781B025F
:101E18001AB23B6904331B781BB213431AB27B68AE
:101E28009A80012318461837BD4680BD80B582B018
:101E380000AF78601C48FFF733FF1B4BB3F9003045
:101E48001846FEF793FF0246184B1B6819461046C2
:101E5800FFF794F803461A467B681A60124BB3F9E9
:101E680002301846FEF782FF0246104B1B681946DF
:101E78001046FFF783F803461A467B685A600A4BF8
:101E8800B3F904301846FEF771FF0246074B1B688A
:101E980019461046FFF772F803461A467B689A609F
:101EA80000BF0837BD4680BD30020020000000207A
:101EB80080B582B000AF78601C48FFF725FF1B4B48
:101EC800B3F900301846FEF751FF0246184B1B685D
:101ED80019461046FFF752F803461A467B681A60FF
:101EE800124BB3F902301846FEF740FF0246104B7A
:101EF8001B6819461046FFF741F803461A467B68E7
:101F08005A600A4BB3F904301846FEF72FFF024611
:101F1800074B1B6819461046FFF730F803461A4668
:101F28007B689A6000BF0837BD4680BD3802002034
:101F3800040000200000000080B584B000AF786085
:101F48002948FFF727FF0346FB73FB7B83F0010358
:101F5800DBB2002B01D000233CE0234BB3F9003067
:101F68001846FEF7B7FA1EA3D3E90023FEF71CFBB9
:101F780002460B4610461946FEF7EEFD02467B6800
:101F88001A60194BB3F902301846FEF7A3FA14A3E6
:101F9800D3E90023FEF708FB02460B461046194614
:101FA800FEF7DAFD02467B685A600F4BB3F904303E
:101FB8001846FEF78FFA0AA3D3E90023FEF7F4FACE
:101FC80002460B4610461946FEF7C6FD02467B68D8
:101FD8009A60012318461037BD4680BDAFF30080D4
:101FE800333333333333C33F400200202DE9B0434A
:101FF80084B004AF4F4B1B8801339AB24D4B1A8003
:102008004D48FFF713FF4D48FFF752FF4C48FFF7C5
:1020180093FF484B1B88052B40F28780454B0022D5
:102028001A80484BB3F900301946464BB3F90230D1
:102038001A46444BB3F90430434804F09BF8434B29
:10204800B3F900301946414BB3F902301A463F4BF9
:10205800B3F904303E4804F08DF83E4BB3F9003034
:1020680019463C4BB3F902301A463A4BB3F90430DF
:10207800394804F07FF8314B1B681846FEF73CFAE4
:10208800804689462D4B5B681846FEF735FA0446AC
:102098000D462A4B9B681846FEF72EFA02460B4659
:1020A800CDE90223CDE9004542464B462B4804F0D2
:1020B80061F8214B1B681846FEF71EFA80468946D0
:1020C8001D4B5B681846FEF717FA04460D461A4B77
:1020D8009B681846FEF710FA02460B46CDE9022324
:1020E800CDE9004542464B461D4804F043F8144BE1
:1020F8001B681846FEF700FA80468946104B5B6855
:102108001846FEF7F9F904460D460D4B9B6818462C
:10211800FEF7F2F902460B46CDE90223CDE9004568
:1021280042464B460F4804F025F800BFBD46BDE8BF
:10213800B08300BF460200200C02002018020020D5
:1021480024020020380200203083000830020020DA
:102158004883000840020020608300087483000858
:1021680090830008A883000880B500AF04210548C3
:1021780001F016FB0346002B01D1012300E00023E8
:10218800184680BD0014014080B582B000AF0346F8
:10219800FB71FFF7E9FF0346012B0ED10E4B1B889D
:1021A8001A46FB7901335B009A4209DA0A4B1B880D
:1021B80001339AB2084B1A8002E0074B00221A80BA
:1021C800054B1B88022B01D1012300E00023184690
:1021D8000837BD4680BD00BF4E02002080B500AF65
:1021E80001220349034802F08EFD00BF80BD00BFF5
:1021F80050020020B002002080B582B000AF034634
:10220800FB71F91D4FF6FF730122034802F0F8FC39
:1022180000BF0837BD4680BDB002002080B582B03F
:1022280000AF7860064B1B781846FFF7E5FF0122E0
:102238000349044802F067FD00BF0837BD4680BD6A
:1022480050020020B002002080B582B000AF786054
:10225800391D4FF6FF730122034802F0D1FC7B6859
:1022680018460837BD4680BDB002002080B582B050
:1022780000AF0C4B5B690B4A43F001035361094BF8
:102288005B6903F001037B607B68002200210E205C
:1022980000F0C5FC0E2000F0DEFC00BF0837BD468C
:1022A80080BD00BF0010024080B588B000AF07F1C4
:1022B800100300221A605A609A60DA60344B9B69F6
:1022C800334A43F010039361314B9B6903F01003C9
:1022D800FB60FB682E4B9B692D4A43F020039361FA
:1022E8002B4B9B6903F02003BB60BB68284B9B69A1
:1022F800274A43F008039361254B9B6903F00803C1
:102308007B607B68224B9B69214A43F004039361FD
:102318001F4B9B6903F004033B603B68002242F2B9
:1023280020011C4801F053FA00224FF480511A484A
:1023380001F04DFA42F220033B6101237B61002347
:10234800BB610223FB6107F110031946114801F034
:1023580093F84FF480533B6101237B610023BB61F9
:102368000223FB6107F1100319460B4801F084F8BA
:1023780004233B6100237B610123BB6107F1100348
:102388001946064801F078F800BF2037BD4680BDE1
:102398000010024000100140000C014000140140F0
:1023A80080B500AF00F0DEFA00F00DF8FFF77CFF13
:1023B800FFF75CFF00F008FA00F050F8FEF7BAFEED
:1023C800FEF7C6FEFCE780B590B000AF07F1180332
:1023D80028220021184603F065FA3B1D00221A60E6
:1023E8005A609A60DA601A610123BB614FF4803346
:1023F800FB6100233B620123BB6202237B634FF432
:102408008033BB634FF4E013FB6307F118031846EE
:1024180001F00EFA0346002B01D000F019F80F2343
:102428007B600223BB600023FB604FF480633B6149
:1024380000237B613B1D0221184601F07BFC03460B
:10244800002B01D000F004F800BF4037BD4680BD26
:1024580080B400AF72B600BFFEE7000080B500AFE1
:10246800174B184A1A60164B4FF482725A60144B75
:1024780000229A60124B0022DA60114B00221A6186
:102488000F4B00225A610E4B4FF400729A610C4BAD
:102498000022DA610A4B00221A62094B00225A62B2
:1024A800074B00229A62064B0A22DA62044801F0BE
:1024B800CFFD0346002B01D0FFF7CAFF00BF80BD48
:1024C800540200200038004080B588B000AF786022
:1024D80007F1100300221A605A609A60DA607B687C
:1024E8001B681C4A934231D11B4BDB691A4A43F4DF
:1024F8008043D361184BDB6903F48043FB60FB68BE
:10250800154B9B69144A43F008039361124B9B696E
:1025180003F00803BB60BB684FF420433B61022310
:102528007B610323FB6107F1100319460B4800F098
:10253800A3FF4FF480433B6100237B610023BB6111
:1025480007F110031946054800F096FF00BF203731
:10255800BD4680BD0038004000100240000C01401C
:1025680080B485B000AF154B9B69144A43F0010352
:102578009361124B9B6903F00103BB60BB680F4B6F
:10258800DB690E4A43F08053D3610C4BDB6903F0DF
:1025980080537B607B680A4B5B68FB60FB6823F0B9
:1025A800E063FB60FB6843F00073FB60044AFB6870
:1025B800536000BF1437BD4680BC7047001002400E
:1025C8000000014080B400AFFEE780B400AFFEE732
:1025D80080B400AFFEE780B400AFFEE780B400AF80
:1025E800FEE780B400AF00BFBD4680BC704780B432
:1025F80000AF00BFBD4680BC704780B400AF00BFCD
:10260800BD4680BC704780B500AF00F0F1F900BF4F
:1026180080BD000080B500AF024800F0F1FC00BFAB
:1026280080BD00BFF802002080B500AF024802F06C
:102638008FFB00BF80BD00BFB002002080B400AF98
:1026480001231846BD4680BC704780B582B000AFF4
:102658007860396003F0FCF8034616221A604FF0E0
:10266800FF3318460837BD4680BD80B582B000AF3D
:1026780078604FF0FF317868FFF7E7FFFEE780B535
:1026880086B000AFF860B9607A6000237B610AE029
:10269800AFF300800146BB685A1CBA60CAB21A7010
:1026A8007B6901337B617A697B689A42F0DB7B68DE
:1026B80018461837BD4680BD80B586B000AFF860B3
:1026C800B9607A6000237B6109E0BB685A1CBA6074
:1026D8001B781846FFF7B8FD7B6901337B617A697F
:1026E8007B689A42F1DB7B6818461837BD4680BD87
:1026F80080B483B000AF78604FF0FF3318460C37D2
:10270800BD4680BC704780B483B000AF7860396044
:102718003B684FF400525A60002318460C37BD46F8
:1027280080BC704780B483B000AF7860012318463E
:102738000C37BD4680BC704780B485B000AFF860E8
:10274800B9607A60002318461437BD4680BC7047CC
:1027580080B586B000AF7860144A154BD31A7B61F8
:102768007B693B61134B1B68002B02D1114B124A4A
:102778001A60104B1A687B6813443A699A4207D268
:1027880003F066F803460C221A604FF0FF3309E0A5
:10279800084B1B68FB60074B1A687B681344054AA3
:1027A8001360FB6818461837BD4680BD00C000207E
:1027B80000040000AC0200205003002080B400AFE9
:1027C80000BFBD4680BC704780B500AF114B124AB0
:1027D8001A60104B4FF4E1325A600E4B00229A6097
:1027E8000C4B0022DA600B4B00221A61094B0C22B9
:1027F8005A61084B00229A61064B0022DA610548AB
:1028080002F0AEF90346002B01D0FFF721FE00BF0E
:1028180080BD00BFB00200200038014080B588B0FC
:1028280000AF786007F1100300221A605A609A60BE
:10283800DA607B681B68334A93425FD1324B9B69ED
:10284800314A43F4804393612F4B9B6903F48043DF
:10285800FB60FB682C4B9B692B4A43F00403936194
:10286800294B9B6903F00403BB60BB684FF40073FA
:102878003B6102237B610323FB6107F110031946C7
:10288800224800F0F9FD4FF480633B6100237B612F
:102898000023BB6107F1100319461C4800F0ECFD4A
:1028A8001B4B1C4A1A601A4B10225A60184B002204
:1028B8009A60174B8022DA60154B00221A61144B7C
:1028C80000225A61124B00229A61114B0022DA61F0
:1028D8000F4800F0DBF90346002B01D0FFF7B8FDE5
:1028E8007B680B4A9A630A4A7B685362002200217C
:1028F800252000F094F9252000F0ADF900BF20371D
:10290800BD4680BD0038014000100240000801406B
:10291800F802002044000240FFF750FF0B480C4922
:102928000C4A002302E0D458C4500433C4188C4223
:10293800F9D3094A094C002301E013600432A2428A
:10294800FBD302F08BFFFFF72BFD70470000002040
:10295800E4010020CC870008E40100205003002097
:10296800FEE7000080B500AF084B1B68074A43F03C
:1029780010031360032000F047F90F2000F008F857
:10298800FFF7EEFD0023184680BD00BF002002407F
:1029980080B582B000AF7860124B1A68124B1B7872
:1029A80019464FF47A73B3FBF1F3B2FBF3F318460D
:1029B80000F05FF90346002B01D001230EE07B688D
:1029C8000F2B0AD8002279684FF0FF3000F027F962
:1029D800064A7B681360002300E001231846083785
:1029E800BD4680BD08000020100000200C0000201B
:1029F80080B400AF054B1B781A46054B1B6813447F
:102A0800034A136000BFBD4680BC70471000002019
:102A18003C03002080B400AF024B1B681846BD463B
:102A280080BC70473C03002080B584B000AF78605C
:102A3800FFF7F0FFB8607B68FB60FB68B3F1FF3F0E
:102A480005D00A4B1B781A46FB681344FB6000BF8D
:102A5800FFF7E0FF0246BB68D31AFA689A42F7D834
:102A680000BF00BF1037BD4680BD00BF100000206A
:102A780080B485B000AF78607B6803F00703FB6023
:102A88000C4BDB68BB60BA684FF6FF031340BB60B2
:102A9800FB681A02BB68134343F0BF6343F4003377
:102AA800BB60044ABB68D36000BF1437BD4680BC16
:102AB800704700BF00ED00E080B400AF044BDB6856
:102AC8001B0A03F007031846BD4680BC704700BFC9
:102AD80000ED00E080B483B000AF0346FB7197F9C6
:102AE8000730002B0BDBFB7903F01F02064997F92F
:102AF80007305B09012000FA02F241F8232000BFE9
:102B08000C37BD4680BC704700E100E080B483B05C
:102B180000AF03463960FB7197F90730002B0ADBD9
:102B28003B68DAB20C4997F907301201D2B20B446C
:102B380083F800230AE03B68DAB20849FB7903F01E
:102B48000F03043B1201D2B20B441A7600BF0C37B4
:102B5800BD4680BC704700BF00E100E000ED00E02A
:102B680080B489B000AFF860B9607A60FB6803F0A0
:102B78000703FB61FB69C3F10703042B28BF042388
:102B8800BB61FB690433062B02D9FB69033B00E0F8
:102B980000237B614FF0FF32BB6902FA03F3DA438B
:102BA800BB681A407B699A404FF0FF317B6901FA94
:102BB80003F3D9437B680B40134318462437BD46BB
:102BC80080BC704780B582B000AF78607B68013BFD
:102BD800B3F1807F01D301230FE00A4A7B68013BF0
:102BE80053600F214FF0FF30FFF790FF054B002295
:102BF8009A60044B07221A60002318460837BD461E
:102C080080BD00BF10E000E080B582B000AF786002
:102C18007868FFF72DFF00BF0837BD4680BD80B537
:102C280086B000AF0346B9607A60FB7300237B610E
:102C3800FFF742FF78617A68B9687869FFF790FF13
:102C4800024697F90F3011461846FFF75FFF00BF9D
:102C58001837BD4680BD80B582B000AF0346FB7112
:102C680097F907301846FFF735FF00BF0837BD460C
:102C780080BD80B582B000AF78607868FFF7A2FFAA
:102C8800034618460837BD4680BD000080B485B0AD
:102C980000AF78600023FB607B68002B01D1012323
:102CA80059E07B681B681A462D4B9A420FD87B68FF
:102CB8001B681A462B4B13442B4AA2FB03231B0900
:102CC8009A007B681A647B68284ADA630EE07B689E
:102CD8001B681A46264B1344234AA2FB03231B09ED
:102CE8009A007B681A647B68224ADA637B6802224E
:102CF80083F821207B681B681B68FB60FB6823F452
:102D08007F5323F03003FB607B685A687B689B68BD
:102D18001A437B68DB681A437B681B691A437B6824
:102D28005B691A437B689B691A437B68DB691343B9
:102D3800FA681343FB607B681B68FA681A607B6853
:102D480000229A637B68012283F821207B68002295
:102D580083F82020002318461437BD4680BC7047EE
:102D680007040240F8FFFDBFCDCCCCCC00000240E8
:102D7800F8FBFDBF0004024080B485B000AF786066
:102D88000023FB737B6893F82130DBB2022B08D059
:102D98007B6804229A637B68002283F82020012341
:102DA80020E07B681B681A687B681B6822F00E02AB
:102DB8001A607B681B681A687B681B6822F001022E
:102DC8001A607B681A6C7B68DB6B012101FA02F2DE
:102DD8005A607B68012283F821207B68002283F8EF
:102DE8002020FB7B18461437BD4680BC7047000086
:102DF80080B584B000AF78600023FB737B6893F8DC
:102E08002130DBB2022B05D07B6804229A630123B0
:102E1800FB73D6E07B681B681A687B681B6822F026
:102E28000E021A607B681B681A687B681B6822F0B0
:102E380001021A607B681B681A46644B9A4258D98B
:102E48007B681B68624A93424FD07B681B68614A63
:102E5800934248D07B681B685F4A934240D07B68A6
:102E68001B685E4A934238D07B681B685C4A934271
:102E780030D07B681B685B4A934228D07B681B680C
:102E8800524A934220D07B681B68574A934219D014
:102E98007B681B68554A934212D07B681B68544A6A
:102EA80093420AD07B681B68524A934202D14FF47E
:102EB80080531BE04FF4803318E04FF4807315E023
:102EC800102313E0012311E04FF080730EE04FF45C
:102ED80080130BE04FF4803308E04FF4805305E093
:102EE8004FF4807302E0102300E00123424A53604C
:102EF80057E07B681B68364A93424FD07B681B6853
:102F0800344A934248D07B681B68334A934240D086
:102F18007B681B68314A934238D07B681B68304A0B
:102F2800934230D07B681B682E4A934228D07B6836
:102F38001B68264A934220D07B681B682A4A934222
:102F480019D07B681B68294A934212D07B681B689A
:102F5800274A93420AD07B681B68264A934202D1CB
:102F68004FF480531BE04FF4803318E04FF4807324
:102F780015E0102313E0012311E04FF080730EE0F9
:102F88004FF480130BE04FF4803308E04FF4805384
:102F980005E04FF4807302E0102300E00123174A94
:102FA80053607B68012283F821207B68002283F824
:102FB80020207B685B6B002B03D07B685B6B786899
:102FC8009847FB7B18461037BD4680BD80000240FD
:102FD800080002401C000240300002404400024049
:102FE800580002406C000240080402401C040240E1
:102FF8003004024044040240000402400000024041
:1030080080B584B000AF78607B68DB6B1B68FB60C1
:103018007B681B681B68BB607B681B6C04229A403A
:10302800FB681340002B00F0F180BB6803F0040339
:10303800002B00F0EB807B681B681B6803F0200303
:10304800002B07D17B681B681A687B681B6822F015
:1030580004021A607B681B681A465F4B9A4258D96B
:103068007B681B685D4A93424FD07B681B685C4A4B
:10307800934248D07B681B685A4A934240D07B6889
:103088001B68594A934238D07B681B68574A934259
:1030980030D07B681B68564A934228D07B681B68EF
:1030A8004D4A934220D07B681B68524A934219D0FC
:1030B8007B681B68504A934212D07B681B684F4A52
:1030C80093420AD07B681B684D4A934202D14FF461
:1030D80080431BE04FF4802318E04FF4806315E031
:1030E800402313E0042311E04FF080630EE04FF417
:1030F80080030BE04FF4802308E04FF4804305E0A1
:103108004FF4806302E0402300E004233D4A53600B
:1031180057E07B681B68314A93424FD07B681B6835
:103128002F4A934248D07B681B682E4A934240D06E
:103138007B681B682C4A934238D07B681B682B4AF3
:10314800934230D07B681B68294A934228D07B6819
:103158001B68214A934220D07B681B68254A93420A
:1031680019D07B681B68244A934212D07B681B687D
:10317800224A93420AD07B681B68214A934202D1B3
:103188004FF480431BE04FF4802318E04FF4806332
:1031980015E0402313E0042311E04FF080630EE0B4
:1031A8004FF480030BE04FF4802308E04FF4804392
:1031B80005E04FF4806302E0402300E00423124A54
:1031C80053607B68DB6A002B00F036817B68DB6A22
:1031D8007868984730E100BF80000240080002404C
:1031E8001C000240300002404400024058000240E7
:1031F8006C000240080402401C04024030040240F3
:103208004404024000040240000002407B681B6C3A
:1032180002229A40FB681340002B00F0DD80BB6857
:1032280003F00203002B00F0D7807B681B681B6843
:1032380003F02003002B0BD17B681B681A687B689E
:103248001B6822F00A021A607B68012283F8212099
:103258007B681B681A467B4B9A4258D97B681B6867
:10326800794A93424FD07B681B68784A934248D08A
:103278007B681B68764A934240D07B681B68754A16
:10328800934238D07B681B68734A934230D07B687E
:103298001B68724A934228D07B681B68694A93422C
:1032A80020D07B681B686E4A934219D07B681B68E4
:1032B8006C4A934212D07B681B686B4A93420AD0CF
:1032C8007B681B68694A934202D14FF400531BE0A4
:1032D8004FF4003318E04FF4007315E0202313E097
:1032E800022311E04FF000730EE04FF400130BE0DF
:1032F8004FF4003308E04FF4005305E04FF4007337
:1033080002E0202300E00223594A536057E07B681B
:103318001B684D4A93424FD07B681B684B4A9342C7
:1033280048D07B681B684A4A934240D07B681B6838
:10333800484A934238D07B681B68474A934230D04A
:103348007B681B68454A934228D07B681B683D4AC6
:10335800934220D07B681B68414A934219D07B680E
:103368001B68404A934212D07B681B683E4A9342CE
:103378000AD07B681B683D4A934202D14FF4005340
:103388001BE04FF4003318E04FF4007315E02023DE
:1033980013E0022311E04FF000730EE04FF4001326
:1033A8000BE04FF4003308E04FF4005305E04FF40E
:1033B800007302E0202300E002232E4A53607B685A
:1033C800002283F820207B689B6A002B34D07B681E
:1033D8009B6A786898472FE07B681B6C08229A40A4
:1033E800FB681340002B28D0BB6803F00803002BB0
:1033F80023D07B681B681A687B681B6822F00E0262
:103408001A607B681A6C7B68DB6B012101FA02F297
:103418005A607B6801229A637B68012283F8212025
:103428007B68002283F820207B681B6B002B04D06C
:103438007B681B6B7868984700BF00BF1037BD4694
:1034480080BD00BF80000240080002401C0002400E
:103458003000024044000240580002406C00024024
:10346800080402401C0402403004024044040240A4
:10347800000402400000024080B48BB000AF7860C6
:10348800396000237B6200233B6279E101227B6A79
:1034980002FA03F3FB613B681B68FA691340BB61DE
:1034A800BA69FB699A4240F068813B685B68964A52
:1034B80093425ED0944A934275D8944A934258D026
:1034C800924A93426FD8924A934252D0904A93427A
:1034D80069D8904A93424CD08E4A934263D88E4A18
:1034E800934246D08C4A93425DD8122B2AD8122B8D
:1034F80059D801A252F823F07B3500085535000849
:1035080067350008A9350008AF350008AF35000851
:10351800AF350008AF350008AF350008AF350008F3
:10352800AF350008AF350008AF350008AF350008E3
:10353800AF350008AF350008AF3500085D35000825
:1035480071350008754A934213D02CE03B68DB685C
:103558003B6229E03B68DB6804333B6224E03B685C
:10356800DB6808333B621FE03B68DB680C333B6277
:103578001AE03B689B68002B02D104233B6213E0EE
:103588003B689B68012B05D108233B627B68FA697D
:103598001A6109E008233B627B68FA695A6103E013
:1035A80000233B6200E000BFBB69FF2B01D87B68AA
:1035B80001E07B6804337B61BB69FF2B02D87B6A1F
:1035C8009B0002E07B6A083B9B003B617B691A68B1
:1035D8000F213B6901FA03F3DB431A40396A3B695F
:1035E80001FA03F31A437B691A603B685B6803F0CE
:1035F8008053002B00F0C180494B9B69484A43F037
:1036080001039361464B9B6903F00103BB60BB68F0
:10361800444A7B6A9B08023352F82330FB607B6A7A
:1036280003F003039B000F2202FA03F3DB43FA685B
:103638001340FB607B683C4A93421FD07B683B4A3F
:10364800934219D07B683A4A934213D07B68394A2F
:1036580093420DD07B68384A934207D07B68374A3B
:10366800934201D105230AE0062308E0042306E07B
:10367800032304E0022302E0012300E000237A6A26
:1036880002F0030292009340FA681343FB60254955
:103698007B6A9B080233FA6841F823203B685B6821
:1036A80003F48013002B06D0254B9A682449BB6984
:1036B80013438B6006E0224B9A68BB69DB432049C1
:1036C80013408B603B685B6803F40013002B06D043
:1036D8001B4BDA681A49BB691343CB6006E0184BE9
:1036E800DA68BB69DB4316491340CB603B685B680B
:1036F80003F40033002B25D0114B5A681049BB69DD
:1037080013434B6025E000BF000032100000311069
:1037180000002210000021100000121000001110FB
:10372800001002400000014000080140000C014068
:10373800001001400014014000180140001C014025
:1037480000040140154B5A68BB69DB431349134019
:103758004B603B685B6803F48033002B06D00F4B4B
:103768001A680E49BB6913430B6006E00B4B1A68D5
:10377800BB69DB43094913400B607B6A01337B62F9
:103788003B681A687B6A22FA03F3002B7FF47EAE4B
:1037980000BF00BF2C37BD4680BC70470004014005
:1037A80080B485B000AF78600B467B807B689A68F0
:1037B8007B881340002B02D00123FB7301E0002318
:1037C800FB73FB7B18461437BD4680BC704780B43A
:1037D80083B000AF78600B467B8013467B707B78A4
:1037E800002B03D07A887B681A6103E07B881A046F
:1037F8007B681A6100BF0C37BD4680BC704780B437
:1038080085B000AF78600B467B807B68DB68FB6027
:103818007A88FB6813401A04FB68D9437B880B40FD
:103828001A437B681A6100BF1437BD4680BC7047D5
:1038380080B586B000AF78607B68002B01D101238A
:1038480072E27B681B6803F00103002B00F087809D
:10385800924B5B6803F00C03042B0CD08F4B5B6816
:1038680003F00C03082B12D18C4B5B6803F48033F4
:10387800B3F5803F0BD1894B1B6803F40033002B51
:103888006CD07B685B68002B68D101234CE27B68B5
:103898005B68B3F5803F06D1804B1B687F4A43F4D1
:1038A800803313602EE07B685B68002B0CD17B4B68
:1038B8001B687A4A23F480331360784B1B68774A75
:1038C80023F4802313601DE07B685B68B3F5A02FA9
:1038D8000CD1724B1B68714A43F4802313606F4B01
:1038E8001B686E4A43F4803313600BE06B4B1B6814
:1038F8006A4A23F480331360684B1B68674A23F4D1
:10390800802313607B685B68002B13D0FFF782F875
:10391800386108E0FFF77EF802463B69D31A642B4A
:1039280001D9032300E25D4B1B6803F40033002B2D
:10393800F0D014E0FFF76EF8386108E0FFF76AF896
:1039480002463B69D31A642B01D90323ECE1534B9C
:103958001B6803F40033002BF0D100E000BF7B6844
:103968001B6803F00203002B63D04C4B5B6803F029
:103978000C03002B0BD0494B5B6803F00C03082B9E
:103988001CD1464B5B6803F48033002B16D1434BA4
:103998001B6803F00203002B05D07B681B69012B11
:1039A80001D00123C0E13D4B1B6823F0F8027B687E
:1039B8005B69DB00394913430B603AE07B681B699C
:1039C800002B20D0364B01221A60FFF723F838610C
:1039D80008E0FFF71FF802463B69D31A022B01D90A
:1039E8000323A1E12D4B1B6803F00203002BF0D049
:1039F8002A4B1B6823F0F8027B685B69DB002749C8
:103A080013430B6015E0264B00221A60FFF702F8FB
:103A1800386108E0FEF7FEFF02463B69D31A022B25
:103A280001D9032380E11D4B1B6803F00203002B1F
:103A3800F0D17B681B6803F00803002B3AD07B6841
:103A48009B69002B19D0174B01221A60FEF7E2FF81
:103A5800386108E0FEF7DEFF02463B69D31A022B05
:103A680001D9032360E10D4B5B6A03F00203002BCD
:103A7800F0D0012000F0CEFA1CE00A4B00221A60B8
:103A8800FEF7C8FF38610FE0FEF7C4FF02463B6946
:103A9800D31A022B08D9032346E100BF00100240C5
:103AA8000000424280044242924B5B6A03F00203E8
:103AB800002BE9D17B681B6803F00403002B00F09E
:103AC800A6800023FB758B4BDB6903F08053002B2A
:103AD8000DD1884BDB69874A43F08053D361854B0E
:103AE800DB6903F08053BB60BB680123FB75824B25
:103AF8001B6803F48073002B18D17F4B1B687E4A28
:103B080043F480731360FEF785FF386108E0FEF721
:103B180081FF02463B69D31A642B01D9032303E1D1
:103B2800754B1B6803F48073002BF0D07B68DB684F
:103B3800012B06D16F4B1B6A6E4A43F001031362D7
:103B48002DE07B68DB68002B0CD16A4B1B6A694A45
:103B580023F001031362674B1B6A664A23F00403D0
:103B680013621CE07B68DB68052B0CD1614B1B6A78
:103B7800604A43F0040313625E4B1B6A5D4A43F0DC
:103B8800010313620BE05B4B1B6A5A4A23F00103E3
:103B98001362584B1B6A574A23F0040313627B686D
:103BA800DB68002B15D0FEF735FF38610AE0FEF719
:103BB80031FF02463B69D31A41F28832934201D958
:103BC8000323B1E04B4B1B6A03F00203002BEED03A
:103BD80014E0FEF71FFF38610AE0FEF71BFF0246FC
:103BE8003B69D31A41F28832934201D903239BE0FF
:103BF800404B1B6A03F00203002BEED1FB7D012B27
:103C080005D13C4BDB693B4A23F08053D3617B6889
:103C1800DB69002B00F08780364B5B6803F00C03F0
:103C2800082B61D07B68DB69022B46D1334B00221D
:103C38001A60FEF7EFFE386108E0FEF7EBFE024679
:103C48003B69D31A022B01D903236DE0294B1B686A
:103C580003F00073002BF0D17B681B6AB3F5803F3B
:103C680008D1244B5B6823F400327B689B682149A8
:103C780013434B601F4B5B6823F474127B68196A0B
:103C88007B685B6A0B431B4913434B601B4B012248
:103C98001A60FEF7BFFE386108E0FEF7BBFE024679
:103CA8003B69D31A022B01D903233DE0114B1B6852
:103CB80003F00073002BF0D035E0104B00221A609F
:103CC800FEF7A8FE386108E0FEF7A4FE02463B694D
:103CD800D31A022B01D9032326E0064B1B6803F0F5
:103CE8000073002BF0D11EE07B68DB69012B07D144
:103CF800012319E0001002400070004060004242B9
:103D08000B4B5B68FB60FB6803F480327B681B6AC3
:103D18009A4206D1FB6803F470127B685B6A9A4288
:103D280001D0012300E0002318461837BD4680BDA6
:103D38000010024080B584B000AF786039607B68BD
:103D4800002B01D10123D0E06A4B1B6803F0070365
:103D58003A689A4210D9674B1B6823F007026549F5
:103D68003B6813430B60634B1B6803F007033A6817
:103D78009A4201D00123B8E07B681B6803F0020374
:103D8800002B20D07B681B6803F00403002B05D0B0
:103D9800594B5B68584A43F4E06353607B681B687F
:103DA80003F00803002B05D0534B5B68524A43F4D9
:103DB80060535360504B5B6823F0F0027B689B684C
:103DC8004D4913434B607B681B6803F00103002BCC
:103DD80040D07B685B68012B07D1474B1B6803F415
:103DE8000033002B15D101237FE07B685B68022B31
:103DF80007D1414B1B6803F00073002B09D1012345
:103E080073E03D4B1B6803F00203002B01D1012333
:103E18006BE0394B5B6823F003027B685B683649CB
:103E280013434B60FEF7F6FDF8600AE0FEF7F2FD7B
:103E38000246FB68D31A41F28832934201D9032320
:103E480053E02D4B5B6803F00C027B685B689B00BA
:103E58009A42EBD1274B1B6803F007033A689A4252
:103E680010D2244B1B6823F0070222493B681343F6
:103E78000B60204B1B6803F007033A689A4201D095
:103E8800012332E07B681B6803F00403002B08D091
:103E9800194B5B6823F4E0627B68DB6816491343BF
:103EA8004B607B681B6803F00803002B09D0124B9A
:103EB8005B6823F460527B681B69DB000E4913437F
:103EC8004B6000F021F802460B4B5B681B0903F0BE
:103ED8000F030A49CB5C22FA03F3094A1360094B22
:103EE8001B681846FEF754FD002318461037BD46D8
:103EF80080BD00BF0020024000100240C0830008BF
:103F0800080000200C00002080B487B000AF002318
:103F1800FB600023BB6000237B6100237B600023E0
:103F28003B611E4B5B68FB60FB6803F00C03042BD2
:103F380002D0082B03D027E0194B3B6127E0FB6830
:103F48009B0C03F00F03174AD35C7B60FB6803F4F8
:103F58008033002B10D0114B5B685B0C03F001031E
:103F6800114AD35CBB607B680D4A03FB02F2BB6855
:103F7800B2FBF3F37B6104E07B680C4A02FB03F3BA
:103F88007B617B693B6102E0054B3B6100BF3B699C
:103F980018461C37BD4680BC704700BF0010024061
:103FA80000127A00D8830008E883000800093D0061
:103FB80080B400AF024B1B681846BD4680BC7047F2
:103FC8000800002080B500AFFFF7F2FF0246054B5E
:103FD8005B681B0A03F007030349CB5C22FA03F36F
:103FE800184680BD00100240D083000880B500AF9D
:103FF800FFF7DEFF0246054B5B68DB0A03F00703A9
:104008000349CB5C22FA03F3184680BD0010024036
:10401800D083000880B485B000AF78600A4B1B6875
:104028000A4AA2FB03235B0A7A6802FB03F3FB60DC
:1040380000BFFB685A1EFA60002BF9D100BF00BF11
:104048001437BD4680BC704708000020D34D62106D
:1040580080B582B000AF78607B68002B01D1012366
:1040680076E07B685B6A002B08D17B685B68B3F5F8
:10407800827F09D07B680022DA6105E07B68002234
:104088001A617B6800225A617B6800229A627B6809
:1040980093F85130DBB2002B06D17B68002283F8FD
:1040A80050207868FEF710FA7B68022283F85120C6
:1040B8007B681B681A687B681B6822F040021A60DC
:1040C8007B685B6803F482727B689B6803F4044333
:1040D8001A437B68DB6803F400631A437B681B6937
:1040E80003F002031A437B685B6903F001031A4378
:1040F8007B689B6903F400731A437B68DB6903F0F0
:1041080038031A437B681B6A03F0800342EA030101
:104118007B689B6A03F400527B681B680A431A6039
:104128007B689B691A0C7B681B6802F004025A6062
:104138007B681B68DA697B681B6822F40062DA61B5
:104148007B6800225A657B68012283F8512000238E
:1041580018460837BD4680BD80B588B000AFF86006
:10416800B9603B601346FB800023FB77FB6893F83C
:104178005030012B01D102232DE1FB68012283F885
:104188005020FEF747FCB861FB88FB82FB6893F878
:104198005130DBB2012B02D00223FB7716E1BB685A
:1041A800002B02D0FB88002B02D10123FB770DE105
:1041B800FB68032283F85120FB6800225A65FB68DC
:1041C800BA681A63FB68FA889A86FB68FA88DA86FE
:1041D800FB6800229A63FB6800229A87FB6800222A
:1041E800DA87FB6800225A64FB6800221A64FB68BD
:1041F8009B68B3F5004F0FD1FB681B681A68FB6812
:104208001B6822F040021A60FB681B681A68FB688A
:104218001B6842F480421A60FB681B681B6803F045
:104228004003402B07D0FB681B681A68FB681B68B3
:1042380042F040021A60FB68DB68B3F5006F4FD1AB
:10424800FB685B68002B02D0FB8A012B42D1FB681C
:104258001B6B1A88FB681B68DA60FB681B6B9A1C6F
:10426800FB681A63FB68DB8E9BB2013B9AB2FB6862
:10427800DA862FE0FB681B689B6803F00203022BB9
:1042880012D1FB681B6B1A88FB681B68DA60FB6835
:104298001B6B9A1CFB681A63FB68DB8E9BB2013BA5
:1042A8009AB2FB68DA8615E0FEF7B4FB0246BB69F2
:1042B800D31A3A689A4203D83B68B3F1FF3F02D158
:1042C8003B68002B06D10323FB77FB68012283F8A8
:1042D80051207BE0FB68DB8E9BB2002BCAD150E0FB
:1042E800FB685B68002B02D0FB8A012B44D1FB687A
:1042F8001A6BFB681B680C3312781A70FB681B6B0F
:104308005A1CFB681A63FB68DB8E9BB2013B9AB2AE
:10431800FB68DA8630E0FB681B689B6803F00203E1
:10432800022B13D1FB681A6BFB681B680C331278DD
:104338001A70FB681B6B5A1CFB681A63FB68DB8EE0
:104348009BB2013B9AB2FB68DA8615E0FEF762FB86
:104358000246BB69D31A3A689A4203D83B68B3F15C
:10436800FF3F02D13B68002B06D10323FB77FB6894
:10437800012283F8512029E0FB68DB8E9BB2002BD9
:10438800C9D1BA693968F86800F0CCFB0346002B3C
:1043980002D0FB6820225A65FB689B68002B0AD173
:1043A80000233B61FB681B68DB683B61FB681B689B
:1043B8009B683B613B69FB685B6D002B02D0012366
:1043C800FB7703E0FB68012283F85120FB68002299
:1043D80083F85020FB7F18462037BD4680BD80B546
:1043E80088B002AFF860B9603B601346FB800023D9
:1043F800FB75FB6893F85130DBB2012B02D0022326
:10440800FB75FBE0FB685B68B3F5827F12D1FB6844
:104418009B68002B0ED1FB68042283F85120FA8890
:104428003B6800931346BA68B968F86800F0EFF87B
:104438000346E8E0FB6893F85030012B01D10223D2
:10444800E1E0FB68012283F85020FEF7E3FA3861C7
:10445800BB68002B02D0FB88002B02D10123FB751F
:10446800CCE0FB68042283F85120FB6800225A65DF
:10447800FB68BA689A63FB68FA889A87FB68FA88C7
:10448800DA87FB6800221A63FB6800229A86FB68B9
:104498000022DA86FB6800221A64FB6800225A644C
:1044A800FB689B68B3F5004F0FD1FB681B681A685F
:1044B800FB681B6822F040021A60FB681B681A68D8
:1044C800FB681B6822F480421A60FB681B681B6843
:1044D80003F04003402B07D0FB681B681A68FB6891
:1044E8001B6842F040021A60FB68DB68002B6AD147
:1044F80032E0FB681B689B6803F00103012B15D1B0
:10450800FB681B6803F10C02FB689B6B1278D2B244
:104518001A70FB689B6B5A1CFB689A63FB68DB8FFD
:104528009BB2013B9AB2FB68DA8715E0FEF772FA94
:1045380002463B69D31A3A689A4203D83B68B3F1FA
:10454800FF3F02D13B68002B06D10323FB75FB68B4
:10455800012283F8512051E0FB68DB8F9BB2002BCE
:10456800C7D135E0FB681B689B6803F00103012B8A
:1045780013D1FB681B68DA68FB689B6B92B21A80E0
:10458800FB689B6B9A1CFB689A63FB68DB8F9BB28A
:10459800013B9AB2FB68DA8715E0FEF73BFA024660
:1045A8003B69D31A3A689A4203D83B68B3F1FF3F94
:1045B80002D13B68002B06D10323FB75FB6801225F
:1045C80083F851201AE0FB68DB8F9BB2002BC9D11E
:1045D8003A693968F86800F053FA0346002B02D0AC
:1045E800FB6820225A65FB685B6D002B02D0012313
:1045F800FB7503E0FB68012283F85120FB68002269
:1046080083F85020FB7D18461837BD4680BD80B51D
:104618008CB000AFF860B9607A607B800123FB62E0
:10462800002387F82B30FB6893F85030012B01D119
:10463800022398E1FB68012283F85020FEF7EAF98B
:104648007862FB6893F8513087F82330FB685B6821
:10465800FB617B887B8397F82330012B0FD0FB69A4
:10466800B3F5827F07D1FB689B68002B03D197F8CD
:104678002330042B03D0022387F82B306DE1BB686D
:10468800002B05D07B68002B02D07B88002B03D140
:10469800012387F82B3060E1FB6893F85130DBB2D7
:1046A800042B03D0FB68052283F85120FB68002205
:1046B8005A65FB687A689A63FB687A88DA87FB68C8
:1046C8007A889A87FB68BA681A63FB687A88DA86F8
:1046D800FB687A889A86FB6800221A64FB680022C5
:1046E8005A64FB681B681B6803F04003402B07D023
:1046F800FB681B681A68FB681B6842F040021A6076
:10470800FB68DB68B3F5006F7CD1FB685B68002B46
:1047180002D07B8B012B6AD1FB681B6B1A88FB6864
:104728001B68DA60FB681B6B9A1CFB681A63FB68E2
:10473800DB8E9BB2013B9AB2FB68DA8657E0FB68D6
:104748001B689B6803F00203022B1BD1FB68DB8EFE
:104758009BB2002B16D0FB6A012B13D1FB681B6B95
:104768001A88FB681B68DA60FB681B6B9A1CFB687D
:104778001A63FB68DB8E9BB2013B9AB2FB68DA8650
:104788000023FB62FB681B689B6803F00103012B95
:1047980019D1FB68DB8F9BB2002B14D0FB681B6818
:1047A800DA68FB689B6B92B21A80FB689B6B9A1C59
:1047B800FB689A63FB68DB8F9BB2013B9AB2FB688C
:1047C800DA870123FB62FEF725F902467B6AD31AD2
:1047D800BA6B9A420BD8BB6BB3F1FF3F07D00323E8
:1047E80087F82B30FB68012283F85120B5E0FB687D
:1047F800DB8E9BB2002BA2D1FB68DB8F9BB2002B18
:104808009DD180E0FB685B68002B02D07B8B012B7D
:104818006FD1FB681A6BFB681B680C3312781A702F
:10482800FB681B6B5A1CFB681A63FB68DB8E9BB228
:10483800013B9AB2FB68DA865BE0FB681B689B6801
:1048480003F00203022B1CD1FB68DB8E9BB2002B0A
:1048580017D0FB6A012B14D1FB681A6BFB681B6825
:104868000C3312781A70FB681B6B5A1CFB681A63AE
:10487800FB68DB8E9BB2013B9AB2FB68DA860023A9
:10488800FB62FB681B689B6803F00103012B19D1CD
:10489800FB68DB8F9BB2002B14D0FB681B68DA68BF
:1048A800FB689B6BD2B21A70FB689B6B5A1CFB6847
:1048B8009A63FB68DB8F9BB2013B9AB2FB68DA878D
:1048C8000123FB62FEF7A6F802467B6AD31ABA6B8D
:1048D8009A4203D8BB6BB3F1FF3F02D1BB6B002BED
:1048E80007D1032387F82B30FB68012283F8512076
:1048F80033E0FB68DB8E9BB2002B9ED1FB68DB8F1D
:104908009BB2002B99D17A6AB96BF86800F00AF962
:104918000346002B06D0012387F82B30FB682022A2
:104928005A651AE0FB689B68002B0AD100237B615B
:10493800FB681B68DB687B61FB681B689B687B61A5
:104948007B69FB685B6D002B03D0012387F82B3054
:1049580003E0FB68012283F85120FB68002283F8FA
:10496800502097F82B3018463037BD4680BD0000E0
:1049780080B588B000AFF860B9603B601346FB7142
:10498800FEF748F80246BB6A9B1A3A681344FB6173
:10499800FEF740F8B861394B1B685B011B0DFA69DB
:1049A80002FB03F37B6154E03B68B3F1FF3F50D057
:1049B800FEF730F80246BB69D31AFA699A4202D95F
:1049C800FB69002B3DD1FB681B685A68FB681B68B4
:1049D80022F0E0025A60FB685B68B3F5827F11D170
:1049E800FB689B68B3F5004F04D0FB689B68B3F580
:1049F800806F07D1FB681B681A68FB681B6822F088
:104A080040021A60FB689B6AB3F5005F0FD1FB6830
:104A18001B681A68FB681B6822F400521A60FB685E
:104A28001B681A68FB681B6842F400521A60FB682E
:104A3800012283F85120FB68002283F850200323C9
:104A480017E07B69002B01D10023FB617B69013BE7
:104A58007B61FB681B689A68BB681340BA689A4216
:104A68000CBF01230023DBB21A46FB799A429BD183
:104A7800002318462037BD4680BD00BF080000202F
:104A880080B586B002AFF860B9607A60FB685B6891
:104A9800B3F5827F11D1FB689B68B3F5004F04D052
:104AA800FB689B68B3F5806F07D1FB681B681A68C1
:104AB800FB681B6822F040021A60FB685B68B3F56C
:104AC800827F17D1FB689B68B3F5806F12D17B6832
:104AD8000093BB6800220121F868FFF749FF0346ED
:104AE800002B1AD0FB685B6D43F02002FB685A6507
:104AF800032313E07B680093BB6800228021F868D9
:104B0800FFF736FF0346002B07D0FB685B6D43F0C9
:104B18002002FB685A65032300E00023184610377B
:104B2800BD4680BD80B586B002AFF860B9607A60D6
:104B38007B680093BB6800228021F868FFF718FFA4
:104B48000346002B07D0FB685B6D43F02002FB682F
:104B58005A65032300E0002318461037BD4680BD80
:104B680080B582B000AF78607B68002B01D101234B
:104B780042E07B6893F84130DBB2002B06D17B68BA
:104B8800002283F840207868FDF748FE7B682422DD
:104B980083F841207B681B68DA687B681B6822F40D
:104BA8000052DA60786800F0C5FD7B681B681A69F6
:104BB8007B681B6822F490421A617B681B685A69FB
:104BC8007B681B6822F02A025A617B681B68DA68D6
:104BD8007B681B6842F40052DA607B6800225A64E2
:104BE8007B68202283F841207B68202283F84220BA
:104BF8007B6800225A63002318460837BD4680BDEB
:104C080080B58AB002AFF860B9603B601346FB809C
:104C180000237B61FB6893F84130DBB2202B6DD118
:104C2800BB68002B02D0FB88002B01D1012366E072
:104C3800FB6800225A64FB68212283F84120FDF7B3
:104C4800E9FE7861FB68FA889A84FB68FA88DA8456
:104C5800FB689B68B3F5805F08D1FB681B69002B74
:104C680004D10023FB61BB68BB6103E0BB68FB6147
:104C78000023BB612AE03B6800937B690022802106
:104C8800F86800F014FB0346002B01D0032336E03C
:104C9800FB69002B0BD1BB691B881A46FB681B6894
:104CA800C2F308025A60BB690233BB6107E0FB69C3
:104CB8001A78FB681B685A60FB690133FB61FB6863
:104CC800DB8C9BB2013B9AB2FB68DA84FB68DB8C15
:104CD8009BB2002BCFD13B6800937B690022402117
:104CE800F86800F0E4FA0346002B01D0032306E03D
:104CF800FB68202283F84120002300E002231846A5
:104D08002037BD4680BD80B584B000AFF860B9607B
:104D18001346FB80FB6893F84230DBB2202B12D19C
:104D2800BB68002B02D0FB88002B01D101230BE0CC
:104D3800FB6800221A63FB881A46B968F86800F015
:104D480024FB034600E0022318461037BD4680BD09
:104D580080B5BAB000AF78607B681B681B68C7F87D
:104D6800E4307B681B68DB68C7F8E0307B681B6849
:104D78005B69C7F8DC300023C7F8D8300023C7F8D0
:104D8800D430D7F8E43003F00F03C7F8D830D7F899
:104D9800D830002B0FD1D7F8E43003F02003002BD4
:104DA80009D0D7F8E03003F02003002B03D078684F
:104DB80000F001FC5BE2D7F8D830002B00F0DE8071
:104DC800D7F8DC3003F00103002B06D1D7F8E03028
:104DD80003F49073002B00F0D180D7F8E43003F08F
:104DE8000103002B0BD0D7F8E03003F48073002BBD
:104DF80005D07B685B6C43F001027B685A64D7F886
:104E0800E43003F00403002B0BD0D7F8DC3003F0B8
:104E18000103002B05D07B685B6C43F002027B68C2
:104E28005A64D7F8E43003F00203002B0BD0D7F80C
:104E3800DC3003F00103002B05D07B685B6C43F08A
:104E480004027B685A64D7F8E43003F00803002BA7
:104E580011D0D7F8E03003F02003002B05D1D7F8A4
:104E6800DC3003F00103002B05D07B685B6C43F05A
:104E780008027B685A647B685B6C002B00F0F28147
:104E8800D7F8E43003F02003002B08D0D7F8E0303F
:104E980003F02003002B02D0786800F08CFB7B68BD
:104EA8001B685B6903F04003002B14BF0123002338
:104EB800DBB2C7F8D4307B685B6C03F00803002BC7
:104EC80003D1D7F8D430002B4FD0786800F096FA89
:104ED8007B681B685B6903F04003002B41D07B684B
:104EE8001B681433C7F89C30D7F89C3053E8003F50
:104EF800C7F89830D7F8983023F04003C7F8D03077
:104F08007B681B681433D7F8D020C7F8A820C7F8E7
:104F1800A430D7F8A410D7F8A82041E80023C7F890
:104F2800A030D7F8A030002BD9D17B68DB6B002BE1
:104F380013D07B68DB6B7E4A5A637B68DB6B184651
:104F4800FDF756FF0346002B16D07B68DB6B5B6BC7
:104F58007A68D26B104698470EE0786800F093F9AB
:104F68000AE0786800F08FF906E0786800F08BF9BD
:104F78007B6800225A6475E100BF73E17B681B6B94
:104F8800012B40F04F81D7F8E43003F01003002BD9
:104F980000F04881D7F8E03003F01003002B00F050
:104FA80041810023BB607B681B681B68BB607B6812
:104FB8001B685B68BB60BB687B681B685B6903F048
:104FC8004003002B00F0B6807B68DB6B1B685B68D6
:104FD800A7F8BE30B7F8BE30002B00F045817B68DB
:104FE8009B8DB7F8BE209A4280F03E817B68B7F867
:104FF800BE20DA857B68DB6B9B69202B00F08880FC
:105008007B681B680C33C7F88830D7F8883053E8BA
:10501800003FC7F88430D7F8843023F48073C7F88A
:10502800B8307B681B680C33D7F8B820C7F89420D1
:10503800C7F89030D7F89010D7F8942041E80023AB
:10504800C7F88C30D7F88C30002BD9D17B681B6817
:1050580014337B677B6F53E8003F3B673B6F23F05C
:105068000103C7F8B4307B681B681433D7F8B42041
:10507800C7F88020FB67F96FD7F8802041E8002344
:10508800BB67BB6F002BE1D17B681B6814333B66A1
:105098003B6E53E8003FFB65FB6D23F04003C7F808
:1050A800B0307B681B681433D7F8B020FA66BB664B
:1050B800B96EFA6E41E800237B667B6E002BE3D164
:1050C8007B68202283F842207B6800221A637B6871
:1050D8001B680C33FB64FB6C53E8003FBB64BB6C80
:1050E80023F01003C7F8AC307B681B680C33D7F883
:1050F800AC20BA657B65796DBA6D41E800233B65E4
:105108003B6D002BE3D17B68DB6B1846FDF734FE63
:105118007B6802225A637B689A8D7B68DB8D9BB221
:10512800D31A9BB21946786800F0B6F89CE000BF25
:10513800C95400087B689A8D7B68DB8D9BB2D31AB3
:10514800A7F8CE307B68DB8D9BB2002B00F08E80F9
:10515800B7F8CE30002B00F089807B681B680C33D1
:10516800BB63BB6B53E8003F7B637B6B23F490739B
:10517800C7F8C8307B681B680C33D7F8C8207A6436
:105188003B64396C7A6C41E80023FB63FB6B002BB2
:10519800E3D17B681B6814337B627B6A53E8003F6A
:1051A8003B623B6A23F00103C7F8C4307B681B6885
:1051B8001433D7F8C4203A63FB62F96A3A6B41E8C2
:1051C8000023BB62BB6A002BE3D17B68202283F8F3
:1051D80042207B6800221A637B681B680C333B61A2
:1051E8003B6953E8003FFB60FB6823F01003C7F8F6
:1051F800C0307B681B680C33D7F8C020FA61BB61EC
:10520800B969FA6941E800237B617B69002BE3D126
:105218007B6802225A63B7F8CE301946786800F0E6
:105228003BF823E0D7F8E43003F08003002B09D0E3
:10523800D7F8E03003F08003002B03D0786800F043
:1052480053F914E0D7F8E43003F04003002B0ED0F4
:10525800D7F8E03003F04003002B08D0786800F05E
:1052680092F904E000BF02E000BF00E000BFE837A9
:10527800BD4680BD80B483B000AF786000BF0C37F6
:10528800BD4680BC704780B483B000AF786000BF73
:105298000C37BD4680BC704780B483B000AF7860DF
:1052A8000B467B8000BF0C37BD4680BC704780B57D
:1052B80090B000AFF860B9603B601346FB7150E0F6
:1052C800BB6CB3F1FF3F4CD0BB6C002B07D0FDF794
:1052D800A1FB02463B68D31ABA6C9A4241D2FB68DA
:1052E8001B680C33BB62BB6A53E8003F7B627B6A76
:1052F80023F4D073FB63FB681B680C33FA6B7A6387
:105308003B63396B7A6B41E80023FB62FB6A002B35
:10531800E5D1FB681B6814337B617B6953E8003F68
:105328003B613B6923F00103BB63FB681B681433D3
:10533800BA6B3A62FB61F9693A6A41E80023BB61DA
:10534800BB69002BE5D1FB68202283F84120FB686C
:10535800202283F84220FB68002283F840200323A0
:105368000FE0FB681B681A68BB681340BA689A426A
:105378000CBF01230023DBB21A46FB799A429FD067
:10538800002318464037BD4680BD80B485B000AFC5
:10539800F860B9601346FB80FB68BA689A62FB68DC
:1053A800FA889A85FB68FA88DA85FB6800225A64CD
:1053B800FB68222283F84220FB681B69002B07D078
:1053C800FB681B68DA68FB681B6842F48072DA6065
:1053D800FB681B685A69FB681B6842F001025A6146
:1053E800FB681B68DA68FB681B6842F02002DA6019
:1053F800002318461437BD4680BC704780B495B06A
:1054080000AF78607B681B680C337B637B6B53E869
:10541800003F3B633B6B23F49073FB647B681B6822
:105428000C33FA6C3A64FB63F96B3A6C41E800237D
:10543800BB63BB6B002BE5D17B681B6814333B62F5
:105448003B6A53E8003FFB61FB6923F00103BB643F
:105458007B681B681433BA6CFA62BB62B96AFA6A71
:1054680041E800237B627B6A002BE5D17B681B6BDC
:10547800012B19D17B681B680C33FB60FB6853E870
:10548800003FBB60BB6823F010037B647B681B682C
:105498000C337A6CBA617B617969BA6941E8002397
:1054A8003B613B69002BE5D17B68202283F84220D1
:1054B8007B6800221A6300BF5437BD4680BC704722
:1054C80080B584B000AF78607B685B6AFB60FB687E
:1054D8000022DA85FB680022DA84F868FFF7D3FE39
:1054E80000BF1037BD4680BD80B485B000AF78607E
:1054F8007B6893F84130DBB2212B3ED17B689B68F7
:10550800B3F5805F14D17B681B69002B10D17B68D1
:105518001B6AFB60FB681B881A467B681B68C2F322
:1055280008025A607B681B6A9A1C7B681A6208E04A
:105538007B681B6A591C7A6811621A787B681B6839
:105548005A607B68DB8C9BB2013B9BB27A68194638
:10555800D184002B0FD17B681B68DA687B681B68D5
:1055680022F08002DA607B681B68DA687B681B6857
:1055780042F04002DA60002300E0022318461437A4
:10558800BD4680BC704780B582B000AF78607B684C
:105598001B68DA687B681B6822F04002DA607B6867
:1055A800202283F841207868FFF764FE002318461C
:1055B8000837BD4680BD80B58CB000AF78607B6889
:1055C80093F84230DBB2222B40F0AE807B689B68B8
:1055D800B3F5805F17D17B681B69002B13D10023BB
:1055E800FB627B689B6ABB627B681B685B689BB2DB
:1055F800C3F308039AB2BB6A1A807B689B6A9A1C39
:105608007B689A6226E07B689B6AFB620023BB6228
:105618007B689B68B3F5805F07D07B689B68002B2D
:105628000AD17B681B69002B06D17B681B685B6805
:10563800DAB2FB6A1A7008E07B681B685B68DBB249
:1056480003F07F03DAB2FB6A1A707B689B6A5A1C04
:105658007B689A627B68DB8D9BB2013B9BB27A6860
:105668001946D185002B5DD17B681B68DA687B6899
:105678001B6822F02002DA607B681B68DA687B68A6
:105688001B6822F48072DA607B681B685A697B6841
:105698001B6822F001025A617B68202283F84220AD
:1056A8007B6800225A637B681B6B012B35D17B68B2
:1056B80000221A637B681B680C337B617B6953E8A3
:1056C800003F3B613B6923F010037B627B681B68EA
:1056D8000C337A6A3A62FB61F9693A6A41E8002355
:1056E800BB61BB69002BE5D17B681B681B6803F0B5
:1056F8001003102B0AD10023FB607B681B681B6812
:10570800FB607B681B685B68FB60FB687B689B8D44
:1057180019467868FFF7C0FD02E07868FCF77EFD5F
:10572800002302E0002300E0022318463037BD467C
:1057380080BD000080B584B000AF78607B681B68CE
:105748001B6923F440517B68DA687B681B680A434D
:105758001A617B689A687B681B691A437B685B6976
:105768001343BB607B681B68DB6823F4B05323F0EA
:105778000C037A681268B9680B43D3607B681B68AE
:105788005B6923F440717B689A697B681B680A43EC
:105798005A617B681B682C4A934203D1FEF726FCAA
:1057A800F86002E0FEF70EFCF860FA6813469B000A
:1057B80013449A001A447B685B689B00B2FBF3F3BE
:1057C800224AA2FB03235B091901FA6813469B00CE
:1057D80013449A001A447B685B689B00B2FBF3F29F
:1057E8001A4BA3FB02035B09642000FB03F3D31AE3
:1057F8001B013233154AA2FB03235B0903F0F003B4
:105808001944FA6813469B0013449A001A447B68AB
:105818005B689B00B2FBF3F20C4BA3FB02035B0932
:10582800642000FB03F3D31A1B013233074AA2FB9F
:1058380003235B0903F00F027B681B680A449A6024
:1058480000BF1037BD4680BD003801401F85EB51B1
:10585800014B1868704700BF1400002070B500267F
:105868000C4D0D4C641BA410A64209D102F048FD52
:1058780000260A4D0A4C641BA410A64205D170BD2F
:1058880055F8043B98470136EEE755F8043B98472E
:105898000136F2E7C4870008C4870008C4870008F7
:1058A800C887000803460244934200D1704703F8B2
:1058B800011BF9E7002B2DE9F0471F46BBBF03F199
:1058C80000431F4600232D2388B01446129A109DCA
:1058D8001370149BDDF84CA023F02008B8F1460F94
:1058E80005D0B8F1450F00D10135022300E00323AC
:1058F80007AA049206AACDE902A2CDE900352246FC
:105908003B4600F0DDFCB8F1470F064602D1119B7B
:10591800DB0722D5B8F1460F06EB050910D133781D
:10592800302B0AD10022002320463946FBF7A4F881
:1059380018B9C5F10105CAF80050DAF800309944E1
:105948000022002320463946FBF796F808B1CDF827
:105958001C903022079B4B4507D33046079B159A6E
:105968009B1B136008B0BDE8F087591C07911A709B
:10597800F0E70346F7B5002903F8022BB6BF2D223E
:105988002B224942092942702BDD0DF10704A44658
:105998000A2791FBF7F60A46A64607FB1615632A5F
:1059A80005F13005314604F1FF340EF8015CF0DCF6
:1059B8003031AEF1020504F8011C2946441C61454A
:1059C8000AD30DF10902A2EB0E02654588BF002239
:1059D8001344181A03B0F0BD11F8012B04F8012F75
:1059E800EDE7302330318370C170031DF1E700000B
:1059F8002DE9F04F91B00C46DDF8688016461F4639
:105A0800054601F041FB036818460993FAF708FCBC
:105A180000230E93D8F800300A90073323F00703C9
:105A280003F1080294F81890D4F800B0C8F80020E0
:105A3800D3E90023C4E91223D4E9128A2AF00043E7
:105A48000B934FF0FF3240469C4B0B99FBF746F8FF
:105A580070BB4FF0FF324046984B0B99FBF720F88C
:105A680030BB0022002340465146FBF70FF810B127
:105A78002D2384F84330924B9248B9F1470F94BFD5
:105A88009846804603234FF0000A23612BF0040355
:105A9800236033462146284600970FAA00F0D4F920
:105AA800013040F090804FF0FF3011B0BDE8F08F2A
:105AB8004246534640465146FBF710F848B1BAF102
:105AC800000FB8BF2D238048B8BF84F843307F4B00
